{
  "abi": [
    {
      "inputs": [],
      "stateMutability": "nonpayable",
      "type": "constructor"
    },
    {
      "inputs": [],
      "name": "ErrLocked",
      "type": "error"
    },
    {
      "inputs": [],
      "name": "ErrNotFound",
      "type": "error"
    },
    {
      "anonymous": false,
      "inputs": [
        {
          "indexed": true,
          "internalType": "address",
          "name": "account",
          "type": "address"
        },
        {
          "indexed": true,
          "internalType": "address",
          "name": "operator",
          "type": "address"
        },
        {
          "indexed": false,
          "internalType": "bool",
          "name": "approved",
          "type": "bool"
        }
      ],
      "name": "ApprovalForAll",
      "type": "event"
    },
    {
      "anonymous": false,
      "inputs": [
        {
          "indexed": true,
          "internalType": "uint256",
          "name": "_tokenId",
          "type": "uint256"
        },
        {
          "indexed": false,
          "internalType": "uint256",
          "name": "_expireTimestamp",
          "type": "uint256"
        },
        {
          "components": [
            {
              "internalType": "uint256",
              "name": "schema",
              "type": "uint256"
            },
            {
              "internalType": "uint256",
              "name": "claimPathKey",
              "type": "uint256"
            },
            {
              "internalType": "uint256",
              "name": "operator",
              "type": "uint256"
            },
            {
              "internalType": "uint256[]",
              "name": "value",
              "type": "uint256[]"
            }
          ],
          "indexed": false,
          "internalType": "struct ZKBadge.Query",
          "name": "_query",
          "type": "tuple"
        }
      ],
      "name": "InitBadge",
      "type": "event"
    },
    {
      "anonymous": false,
      "inputs": [
        {
          "indexed": false,
          "internalType": "uint256",
          "name": "tokenId",
          "type": "uint256"
        }
      ],
      "name": "Locked",
      "type": "event"
    },
    {
      "anonymous": false,
      "inputs": [
        {
          "indexed": true,
          "internalType": "uint256",
          "name": "_tokenId",
          "type": "uint256"
        },
        {
          "indexed": true,
          "internalType": "address",
          "name": "_to",
          "type": "address"
        }
      ],
      "name": "MintBadge",
      "type": "event"
    },
    {
      "anonymous": false,
      "inputs": [
        {
          "indexed": true,
          "internalType": "address",
          "name": "operator",
          "type": "address"
        },
        {
          "indexed": true,
          "internalType": "address",
          "name": "from",
          "type": "address"
        },
        {
          "indexed": true,
          "internalType": "address",
          "name": "to",
          "type": "address"
        },
        {
          "indexed": false,
          "internalType": "uint256[]",
          "name": "ids",
          "type": "uint256[]"
        },
        {
          "indexed": false,
          "internalType": "uint256[]",
          "name": "values",
          "type": "uint256[]"
        }
      ],
      "name": "TransferBatch",
      "type": "event"
    },
    {
      "anonymous": false,
      "inputs": [
        {
          "indexed": true,
          "internalType": "address",
          "name": "operator",
          "type": "address"
        },
        {
          "indexed": true,
          "internalType": "address",
          "name": "from",
          "type": "address"
        },
        {
          "indexed": true,
          "internalType": "address",
          "name": "to",
          "type": "address"
        },
        {
          "indexed": false,
          "internalType": "uint256",
          "name": "id",
          "type": "uint256"
        },
        {
          "indexed": false,
          "internalType": "uint256",
          "name": "value",
          "type": "uint256"
        }
      ],
      "name": "TransferSingle",
      "type": "event"
    },
    {
      "anonymous": false,
      "inputs": [
        {
          "indexed": false,
          "internalType": "string",
          "name": "value",
          "type": "string"
        },
        {
          "indexed": true,
          "internalType": "uint256",
          "name": "id",
          "type": "uint256"
        }
      ],
      "name": "URI",
      "type": "event"
    },
    {
      "anonymous": false,
      "inputs": [
        {
          "indexed": false,
          "internalType": "uint256",
          "name": "tokenId",
          "type": "uint256"
        }
      ],
      "name": "Unlocked",
      "type": "event"
    },
    {
      "inputs": [
        {
          "internalType": "address",
          "name": "account",
          "type": "address"
        },
        {
          "internalType": "uint256",
          "name": "id",
          "type": "uint256"
        }
      ],
      "name": "balanceOf",
      "outputs": [
        {
          "internalType": "uint256",
          "name": "",
          "type": "uint256"
        }
      ],
      "stateMutability": "view",
      "type": "function"
    },
    {
      "inputs": [
        {
          "internalType": "address[]",
          "name": "accounts",
          "type": "address[]"
        },
        {
          "internalType": "uint256[]",
          "name": "ids",
          "type": "uint256[]"
        }
      ],
      "name": "balanceOfBatch",
      "outputs": [
        {
          "internalType": "uint256[]",
          "name": "",
          "type": "uint256[]"
        }
      ],
      "stateMutability": "view",
      "type": "function"
    },
    {
      "inputs": [
        {
          "internalType": "uint256",
          "name": "value",
          "type": "uint256"
        }
      ],
      "name": "convertUint256ToUint64",
      "outputs": [
        {
          "internalType": "uint64",
          "name": "",
          "type": "uint64"
        }
      ],
      "stateMutability": "pure",
      "type": "function"
    },
    {
      "inputs": [],
      "name": "getSupportedRequests",
      "outputs": [
        {
          "internalType": "uint64[]",
          "name": "arr",
          "type": "uint64[]"
        }
      ],
      "stateMutability": "view",
      "type": "function"
    },
    {
      "inputs": [
        {
          "internalType": "uint64",
          "name": "requestId",
          "type": "uint64"
        }
      ],
      "name": "getZKPRequest",
      "outputs": [
        {
          "components": [
            {
              "internalType": "uint256",
              "name": "schema",
              "type": "uint256"
            },
            {
              "internalType": "uint256",
              "name": "claimPathKey",
              "type": "uint256"
            },
            {
              "internalType": "uint256",
              "name": "operator",
              "type": "uint256"
            },
            {
              "internalType": "uint256[]",
              "name": "value",
              "type": "uint256[]"
            },
            {
              "internalType": "uint256",
              "name": "queryHash",
              "type": "uint256"
            },
            {
              "internalType": "string",
              "name": "circuitId",
              "type": "string"
            }
          ],
          "internalType": "struct ICircuitValidator.CircuitQuery",
          "name": "",
          "type": "tuple"
        }
      ],
      "stateMutability": "view",
      "type": "function"
    },
    {
      "inputs": [
        {
          "internalType": "contract ICircuitValidator",
          "name": "_validator",
          "type": "address"
        },
        {
          "components": [
            {
              "internalType": "uint256",
              "name": "schema",
              "type": "uint256"
            },
            {
              "internalType": "uint256",
              "name": "claimPathKey",
              "type": "uint256"
            },
            {
              "internalType": "uint256",
              "name": "operator",
              "type": "uint256"
            },
            {
              "internalType": "uint256[]",
              "name": "value",
              "type": "uint256[]"
            }
          ],
          "internalType": "struct ZKBadge.Query",
          "name": "_query",
          "type": "tuple"
        },
        {
          "internalType": "uint256",
          "name": "_expireTimestamp",
          "type": "uint256"
        },
        {
          "internalType": "string",
          "name": "_tokenURI",
          "type": "string"
        }
      ],
      "name": "initBadge",
      "outputs": [],
      "stateMutability": "nonpayable",
      "type": "function"
    },
    {
      "inputs": [
        {
          "internalType": "address",
          "name": "account",
          "type": "address"
        },
        {
          "internalType": "address",
          "name": "operator",
          "type": "address"
        }
      ],
      "name": "isApprovedForAll",
      "outputs": [
        {
          "internalType": "bool",
          "name": "",
          "type": "bool"
        }
      ],
      "stateMutability": "view",
      "type": "function"
    },
    {
      "inputs": [
        {
          "internalType": "uint256",
          "name": "tokenId",
          "type": "uint256"
        }
      ],
      "name": "locked",
      "outputs": [
        {
          "internalType": "bool",
          "name": "",
          "type": "bool"
        }
      ],
      "stateMutability": "view",
      "type": "function"
    },
    {
      "inputs": [
        {
          "internalType": "address",
          "name": "operator",
          "type": "address"
        },
        {
          "internalType": "address",
          "name": "from",
          "type": "address"
        },
        {
          "internalType": "uint256[]",
          "name": "ids",
          "type": "uint256[]"
        },
        {
          "internalType": "uint256[]",
          "name": "values",
          "type": "uint256[]"
        },
        {
          "internalType": "bytes",
          "name": "data",
          "type": "bytes"
        }
      ],
      "name": "onERC1155BatchReceived",
      "outputs": [
        {
          "internalType": "bytes4",
          "name": "",
          "type": "bytes4"
        }
      ],
      "stateMutability": "nonpayable",
      "type": "function"
    },
    {
      "inputs": [
        {
          "internalType": "address",
          "name": "operator",
          "type": "address"
        },
        {
          "internalType": "address",
          "name": "from",
          "type": "address"
        },
        {
          "internalType": "uint256",
          "name": "id",
          "type": "uint256"
        },
        {
          "internalType": "uint256",
          "name": "value",
          "type": "uint256"
        },
        {
          "internalType": "bytes",
          "name": "data",
          "type": "bytes"
        }
      ],
      "name": "onERC1155Received",
      "outputs": [
        {
          "internalType": "bytes4",
          "name": "",
          "type": "bytes4"
        }
      ],
      "stateMutability": "nonpayable",
      "type": "function"
    },
    {
      "inputs": [
        {
          "internalType": "address",
          "name": "",
          "type": "address"
        },
        {
          "internalType": "uint64",
          "name": "",
          "type": "uint64"
        }
      ],
      "name": "proofs",
      "outputs": [
        {
          "internalType": "bool",
          "name": "",
          "type": "bool"
        }
      ],
      "stateMutability": "view",
      "type": "function"
    },
    {
      "inputs": [
        {
          "internalType": "uint64",
          "name": "",
          "type": "uint64"
        }
      ],
      "name": "requestQueries",
      "outputs": [
        {
          "internalType": "uint256",
          "name": "schema",
          "type": "uint256"
        },
        {
          "internalType": "uint256",
          "name": "claimPathKey",
          "type": "uint256"
        },
        {
          "internalType": "uint256",
          "name": "operator",
          "type": "uint256"
        },
        {
          "internalType": "uint256",
          "name": "queryHash",
          "type": "uint256"
        },
        {
          "internalType": "string",
          "name": "circuitId",
          "type": "string"
        }
      ],
      "stateMutability": "view",
      "type": "function"
    },
    {
      "inputs": [
        {
          "internalType": "uint64",
          "name": "",
          "type": "uint64"
        }
      ],
      "name": "requestValidators",
      "outputs": [
        {
          "internalType": "contract ICircuitValidator",
          "name": "",
          "type": "address"
        }
      ],
      "stateMutability": "view",
      "type": "function"
    },
    {
      "inputs": [
        {
          "internalType": "address",
          "name": "from",
          "type": "address"
        },
        {
          "internalType": "address",
          "name": "to",
          "type": "address"
        },
        {
          "internalType": "uint256[]",
          "name": "ids",
          "type": "uint256[]"
        },
        {
          "internalType": "uint256[]",
          "name": "amounts",
          "type": "uint256[]"
        },
        {
          "internalType": "bytes",
          "name": "data",
          "type": "bytes"
        }
      ],
      "name": "safeBatchTransferFrom",
      "outputs": [],
      "stateMutability": "nonpayable",
      "type": "function"
    },
    {
      "inputs": [
        {
          "internalType": "address",
          "name": "from",
          "type": "address"
        },
        {
          "internalType": "address",
          "name": "to",
          "type": "address"
        },
        {
          "internalType": "uint256",
          "name": "tokenId",
          "type": "uint256"
        },
        {
          "internalType": "uint256",
          "name": "amount",
          "type": "uint256"
        },
        {
          "internalType": "bytes",
          "name": "data",
          "type": "bytes"
        }
      ],
      "name": "safeTransferFrom",
      "outputs": [],
      "stateMutability": "nonpayable",
      "type": "function"
    },
    {
      "inputs": [
        {
          "internalType": "address",
          "name": "operator",
          "type": "address"
        },
        {
          "internalType": "bool",
          "name": "approved",
          "type": "bool"
        }
      ],
      "name": "setApprovalForAll",
      "outputs": [],
      "stateMutability": "nonpayable",
      "type": "function"
    },
    {
      "inputs": [
        {
          "internalType": "uint64",
          "name": "requestId",
          "type": "uint64"
        },
        {
          "internalType": "contract ICircuitValidator",
          "name": "validator",
          "type": "address"
        },
        {
          "internalType": "uint256",
          "name": "schema",
          "type": "uint256"
        },
        {
          "internalType": "uint256",
          "name": "claimPathKey",
          "type": "uint256"
        },
        {
          "internalType": "uint256",
          "name": "operator",
          "type": "uint256"
        },
        {
          "internalType": "uint256[]",
          "name": "value",
          "type": "uint256[]"
        }
      ],
      "name": "setZKPRequest",
      "outputs": [
        {
          "internalType": "bool",
          "name": "",
          "type": "bool"
        }
      ],
      "stateMutability": "nonpayable",
      "type": "function"
    },
    {
      "inputs": [
        {
          "internalType": "uint64",
          "name": "requestId",
          "type": "uint64"
        },
        {
          "internalType": "contract ICircuitValidator",
          "name": "validator",
          "type": "address"
        },
        {
          "internalType": "uint256",
          "name": "schema",
          "type": "uint256"
        },
        {
          "internalType": "uint256",
          "name": "claimPathKey",
          "type": "uint256"
        },
        {
          "internalType": "uint256",
          "name": "operator",
          "type": "uint256"
        },
        {
          "internalType": "uint256[]",
          "name": "value",
          "type": "uint256[]"
        },
        {
          "internalType": "uint256",
          "name": "queryHash",
          "type": "uint256"
        }
      ],
      "name": "setZKPRequestRaw",
      "outputs": [
        {
          "internalType": "bool",
          "name": "",
          "type": "bool"
        }
      ],
      "stateMutability": "nonpayable",
      "type": "function"
    },
    {
      "inputs": [
        {
          "internalType": "uint64",
          "name": "requestId",
          "type": "uint64"
        },
        {
          "internalType": "uint256[]",
          "name": "inputs",
          "type": "uint256[]"
        },
        {
          "internalType": "uint256[2]",
          "name": "a",
          "type": "uint256[2]"
        },
        {
          "internalType": "uint256[2][2]",
          "name": "b",
          "type": "uint256[2][2]"
        },
        {
          "internalType": "uint256[2]",
          "name": "c",
          "type": "uint256[2]"
        }
      ],
      "name": "submitZKPResponse",
      "outputs": [
        {
          "internalType": "bool",
          "name": "",
          "type": "bool"
        }
      ],
      "stateMutability": "nonpayable",
      "type": "function"
    },
    {
      "inputs": [
        {
          "internalType": "bytes4",
          "name": "interfaceId",
          "type": "bytes4"
        }
      ],
      "name": "supportsInterface",
      "outputs": [
        {
          "internalType": "bool",
          "name": "",
          "type": "bool"
        }
      ],
      "stateMutability": "view",
      "type": "function"
    },
    {
      "inputs": [
        {
          "internalType": "uint256",
          "name": "id",
          "type": "uint256"
        }
      ],
      "name": "tokenReptationData",
      "outputs": [
        {
          "components": [
            {
              "internalType": "uint64",
              "name": "requestId",
              "type": "uint64"
            },
            {
              "internalType": "address",
              "name": "issuer",
              "type": "address"
            },
            {
              "internalType": "uint256",
              "name": "expireTimestamp",
              "type": "uint256"
            },
            {
              "components": [
                {
                  "internalType": "uint256",
                  "name": "schema",
                  "type": "uint256"
                },
                {
                  "internalType": "uint256",
                  "name": "claimPathKey",
                  "type": "uint256"
                },
                {
                  "internalType": "uint256",
                  "name": "operator",
                  "type": "uint256"
                },
                {
                  "internalType": "uint256[]",
                  "name": "value",
                  "type": "uint256[]"
                }
              ],
              "internalType": "struct ZKBadge.Query",
              "name": "query",
              "type": "tuple"
            }
          ],
          "internalType": "struct ZKBadge.Reptation",
          "name": "reptation",
          "type": "tuple"
        }
      ],
      "stateMutability": "view",
      "type": "function"
    },
    {
      "inputs": [],
      "name": "totalSupply",
      "outputs": [
        {
          "internalType": "uint256",
          "name": "",
          "type": "uint256"
        }
      ],
      "stateMutability": "view",
      "type": "function"
    },
    {
      "inputs": [
        {
          "internalType": "uint256",
          "name": "tokenId",
          "type": "uint256"
        }
      ],
      "name": "uri",
      "outputs": [
        {
          "internalType": "string",
          "name": "",
          "type": "string"
        }
      ],
      "stateMutability": "view",
      "type": "function"
    }
  ],
  "bytecode": {
    "object": "0x60a0604052600060809081526003906200001a90826200010e565b506009805460ff191660011790553480156200003557600080fd5b50604080516020810190915260008152620000508162000057565b50620001da565b60026200006582826200010e565b5050565b634e487b7160e01b600052604160045260246000fd5b600181811c908216806200009457607f821691505b602082108103620000b557634e487b7160e01b600052602260045260246000fd5b50919050565b601f8211156200010957600081815260208120601f850160051c81016020861015620000e45750805b601f850160051c820191505b818110156200010557828155600101620000f0565b5050505b505050565b81516001600160401b038111156200012a576200012a62000069565b62000142816200013b84546200007f565b84620000bb565b602080601f8311600181146200017a5760008415620001615750858301515b600019600386901b1c1916600185901b17855562000105565b600085815260208120601f198616915b82811015620001ab578886015182559484019460019091019084016200018a565b5085821015620001ca5787850151600019600388901b60f8161c191681555b5050505050600190811b01905550565b6133aa80620001ea6000396000f3fe608060405234801561001057600080fd5b506004361061014c5760003560e01c80639e621bcf116100c3578063b68967e21161007c578063b68967e214610349578063bc197c811461035c578063c76d0845146103b0578063e985e9c5146103d0578063f23a6e611461040c578063f242432a1461044557600080fd5b80639e621bcf1461028e5780639fd4ecc7146102a1578063a22cb465146102b4578063a8723114146102c7578063b45a3c0e14610308578063b45c0fdf1461031b57600080fd5b806337ba95231161011557806337ba9523146101d75780634e1273f4146101ec578063760125261461020c578063825747cb1461022c57806396bf4741146102575780639abdc6451461027b57600080fd5b8062fdd58e1461015157806301ffc9a7146101775780630e89341c1461019a57806318160ddd146101ba5780632eb2c2d6146101c2575b600080fd5b61016461015f3660046121a3565b610458565b6040519081526020015b60405180910390f35b61018a6101853660046121e5565b6104f1565b604051901515815260200161016e565b6101ad6101a8366004612202565b610541565b60405161016e919061226b565b600a54610164565b6101d56101d03660046123fc565b610621565b005b6101df610659565b60405161016e91906124a9565b6101ff6101fa3660046124f6565b6106e3565b60405161016e91906125fd565b61021f61021a366004612202565b61080c565b60405161016e919061264b565b61023f61023a366004612202565b6108e7565b6040516001600160401b03909116815260200161016e565b61026a6102653660046126b1565b610944565b60405161016e9594939291906126cc565b61018a61028936600461274d565b6109fd565b61018a61029c3660046127d0565b610b44565b6101d56102af36600461285a565b610cef565b6101d56102c2366004612939565b610ed1565b6102f06102d53660046126b1565b6007602052600090815260409020546001600160a01b031681565b6040516001600160a01b03909116815260200161016e565b61018a610316366004612202565b610f03565b61018a610329366004612972565b600560209081526000928352604080842090915290825290205460ff1681565b61018a6103573660046129b8565b610f33565b61039761036a366004612a88565b7fbc197c819b3e337a6f9652dd10becd7eef83032af3b9d958d3d42f669414662198975050505050505050565b6040516001600160e01b0319909116815260200161016e565b6103c36103be3660046126b1565b611203565b60405161016e9190612b46565b61018a6103de366004612bb0565b6001600160a01b03918216600090815260016020908152604080832093909416825291909152205460ff1690565b61039761041a366004612bde565b7ff23a6e612e1ff4830e658fe43f4e3cb4a5f8170bd5d9e69fb5d7a7fa9e4fdf979695505050505050565b6101d5610453366004612c59565b611371565b60006001600160a01b0383166104c85760405162461bcd60e51b815260206004820152602a60248201527f455243313135353a2061646472657373207a65726f206973206e6f742061207660448201526930b634b21037bbb732b960b11b60648201526084015b60405180910390fd5b506000818152602081815260408083206001600160a01b03861684529091529020545b92915050565b60006001600160e01b03198216636cdb3d1360e11b148061052257506001600160e01b031982166303a24d0760e21b145b806104eb57506301ffc9a760e01b6001600160e01b03198316146104eb565b60008181526004602052604081208054606092919061055f90612cc1565b80601f016020809104026020016040519081016040528092919081815260200182805461058b90612cc1565b80156105d85780601f106105ad576101008083540402835291602001916105d8565b820191906000526020600020905b8154815290600101906020018083116105bb57829003601f168201915b5050505050905060008151116105f6576105f1836113a2565b61061a565b60038160405160200161060a929190612cfb565b6040516020818303038152906040525b9392505050565b60095460ff16156106455760405163bd291a9560e01b815260040160405180910390fd5b6106528585858585611436565b5050505050565b606060088054806020026020016040519081016040528092919081815260200182805480156106d957602002820191906000526020600020906000905b82829054906101000a90046001600160401b03166001600160401b0316815260200190600801906020826007010492830192600103820291508084116106965790505b5050505050905090565b606081518351146107485760405162461bcd60e51b815260206004820152602960248201527f455243313135353a206163636f756e747320616e6420696473206c656e677468604482015268040dad2e6dac2e8c6d60bb1b60648201526084016104bf565b600083516001600160401b038111156107635761076361227e565b60405190808252806020026020018201604052801561078c578160200160208202803683370190505b50905060005b8451811015610804576107d78582815181106107b0576107b0612d82565b60200260200101518583815181106107ca576107ca612d82565b6020026020010151610458565b8282815181106107e9576107e9612d82565b60209081029190910101526107fd81612dae565b9050610792565b509392505050565b610814612092565b6000828152600b602090815260409182902082516080808201855282546001600160401b0381168352600160401b90046001600160a01b0316828501526001830154828601528451908101855260028301805482526003840154828601526004840154828701526005840180548751818802810188019098528088529396949560608089019694959394908601939092918301828280156108d457602002820191906000526020600020905b8154815260200190600101908083116108c0575b5050509190925250505090525092915050565b60006001600160401b038211156109405760405162461bcd60e51b815260206004820181905260248201527f56616c756520746f6f206c6172676520746f2066697420696e2075696e74363460448201526064016104bf565b5090565b60066020526000908152604090208054600182015460028301546004840154600585018054949593949293919261097a90612cc1565b80601f01602080910402602001604051908101604052809291908181526020018280546109a690612cc1565b80156109f35780601f106109c8576101008083540402835291602001916109f3565b820191906000526020600020905b8154815290600101906020018083116109d657829003601f168201915b5050505050905085565b6000807312d8c87a61daa6dd31d8196187cfa37d1c6471536340ec6e4985856040518363ffffffff1660e01b8152600401610a39929190612df9565b602060405180830381865af4158015610a56573d6000803e3d6000fd5b505050506040513d601f19601f82011682018060405250810190610a7a9190612e0d565b9050600073b588b8f07012dc958aa90efc7d3cf943057f17d763f5b4a7886040518060c001604052808b8152602001600081526020018981526020018a815260200160008152602001858152506040518263ffffffff1660e01b8152600401610ae39190612e26565b602060405180830381865af4158015610b00573d6000803e3d6000fd5b505050506040513d601f19601f82011682018060405250810190610b249190612e0d565b9050610b368a8a8a8a8a8a8a88610b44565b9a9950505050505050505050565b6001600160401b0388166000908152600760205260408120546001600160a01b0316610bc4576008805460018101825560008290527ff3f7a9fe364faab93b216da50a3214154f22a0a2b415b23a84c8169e8b636ee36004820401805460039092169092026101000a6001600160401b0381810219909216918c16021790555b6001600160401b038916600090815260066020526040808220600480820186905560029091018890558151632cd1575560e11b815291516001600160a01b038c16936359a2aeaa9380840193919291908290030181865afa158015610c2d573d6000803e3d6000fd5b505050506040513d6000823e601f3d908101601f19168201604052610c559190810190612e57565b6001600160401b038a16600090815260066020526040902060050190610c7b9082612f23565b506001600160401b038916600090815260066020526040902060018101879055878155610cac9060030185856120f4565b50506001600160401b038816600090815260076020526040902080546001600160a01b0389166001600160a01b0319909116179055600198975050505050505050565b600a8054906000610cff83612dae565b9091555050600a5430639abdc645610d16836108e7565b878760000151886020015189604001518a606001516040518763ffffffff1660e01b8152600401610d4c96959493929190612fe2565b6020604051808303816000875af1158015610d6b573d6000803e3d6000fd5b505050506040513d601f19601f82011682018060405250810190610d8f9190613030565b50610dac308260016040518060200160405280600081525061147b565b610db6818361158f565b6040518060800160405280610dca836108e7565b6001600160401b03168152602001336001600160a01b039081168252602080830187905260409283018890526000858152600b82528390208451815486840151909416600160401b026001600160e01b03199094166001600160401b0390911617929092178255838301516001830155606080850151805160028501908155818401516003860155948101516004850155908101518051939491939192610e799260058701929091019061213b565b505050905050610e88816108e7565b6001600160401b03167f47895bb96af0707cde4587f6d0da3d75face640ba131dbf8cf4eb4b0298464168486604051610ec292919061304d565b60405180910390a25050505050565b60095460ff1615610ef55760405163bd291a9560e01b815260040160405180910390fd5b610eff82826115ec565b5050565b6000600a54821115610f285760405163ae9a63f560e01b815260040160405180910390fd5b505060095460ff1690565b6001600160401b0386166000908152600760205260408120546001600160a01b0316610fb25760405162461bcd60e51b815260206004820152602860248201527f76616c696461746f72206973206e6f742073657420666f7220746869732072656044820152671c5d595cdd081a5960c21b60648201526084016104bf565b6001600160401b03871660009081526006602052604081206004015490036110285760405162461bcd60e51b8152602060048201526024808201527f7175657279206973206e6f742073657420666f722074686973207265717565736044820152631d081a5960e21b60648201526084016104bf565b6110848787878080602002602001604051908101604052809392919081815260200183836020028082843760009201829052506001600160401b038e168152600760205260409020546001600160a01b031692506115f7915050565b6001600160401b038716600090815260076020908152604080832054600690925291829020600490810154925163434661ef60e01b81526001600160a01b039092169263434661ef926110e3928b928b928b928b928b92909101613066565b602060405180830381865afa158015611100573d6000803e3d6000fd5b505050506040513d601f19601f820116820180604052508101906111249190613030565b6111705760405162461bcd60e51b815260206004820152601b60248201527f70726f6f6620726573706f6e7365206973206e6f742076616c6964000000000060448201526064016104bf565b3360009081526005602090815260408083206001600160401b038b168452825291829020805460ff19166001179055815187820281810183019093528781526111f6928a928a918a9182919085019084908082843760009201829052506001600160401b038e168152600760205260409020546001600160a01b031692506116ed915050565b5060019695505050505050565b61123c6040518060c001604052806000815260200160008152602001600081526020016060815260200160008152602001606081525090565b6001600160401b038216600090815260066020908152604091829020825160c0810184528154815260018201548184015260028201548185015260038201805485518186028101860190965280865291949293606086019392908301828280156112c557602002820191906000526020600020905b8154815260200190600101908083116112b1575b50505050508152602001600482015481526020016005820180546112e890612cc1565b80601f016020809104026020016040519081016040528092919081815260200182805461131490612cc1565b80156113615780601f1061133657610100808354040283529160200191611361565b820191906000526020600020905b81548152906001019060200180831161134457829003601f168201915b5050505050815250509050919050565b60095460ff16156113955760405163bd291a9560e01b815260040160405180910390fd5b610652858585858561187e565b6060600280546113b190612cc1565b80601f01602080910402602001604051908101604052809291908181526020018280546113dd90612cc1565b801561142a5780601f106113ff5761010080835404028352916020019161142a565b820191906000526020600020905b81548152906001019060200180831161140d57829003601f168201915b50505050509050919050565b6001600160a01b038516331480611452575061145285336103de565b61146e5760405162461bcd60e51b81526004016104bf906130c9565b61065285858585856118c3565b6001600160a01b0384166114db5760405162461bcd60e51b815260206004820152602160248201527f455243313135353a206d696e7420746f20746865207a65726f206164647265736044820152607360f81b60648201526084016104bf565b3360006114e785611aa0565b905060006114f485611aa0565b90506000868152602081815260408083206001600160a01b038b16845290915281208054879290611526908490613117565b909155505060408051878152602081018790526001600160a01b03808a1692600092918716917fc3d58168c5ae7397731d063d5bbf3d657854427343f4c083240f7aacaa2d0f62910160405180910390a461158683600089898989611aeb565b50505050505050565b60008281526004602052604090206115a78282612f23565b50817f6bb7ff708619ba0610cba295a58592e0451dee2622938c8755667688daf3529b6115d384610541565b6040516115e0919061226b565b60405180910390a25050565b610eff338383611c46565b600061167c83836001600160a01b0316639f442afa6040518163ffffffff1660e01b8152600401602060405180830381865afa15801561163b573d6000803e3d6000fd5b505050506040513d601f19601f8201168201806040525081019061165f9190612e0d565b8151811061166f5761166f612d82565b6020026020010151611d26565b9050336001600160a01b038216146116e75760405162461bcd60e51b815260206004820152602860248201527f6164647265737320696e2070726f6f66206973206e6f7420612073656e646572604482015267206164647265737360c01b60648201526084016104bf565b50505050565b600a5433906001600160401b038516908111156117585760405162461bcd60e51b815260206004820152602360248201527f74686520676976656e207265717565737420696420646f6573206e6f742065786044820152621a5cdd60ea1b60648201526084016104bf565b6001600160a01b03821660009081526005602090815260408083206001600160401b038916845290915290205460ff16156117e75760405162461bcd60e51b815260206004820152602960248201527f70726f6f662063616e206e6f74206265207375626d6974746564206d6f7265206044820152687468616e206f6e636560b81b60648201526084016104bf565b611803828260016040518060200160405280600081525061147b565b6040516001600160a01b0383169082907f3bd96af6938a26c69f7495d25501517707ff4dbdeed3f615989247d2176aa2b690600090a360095460ff1615610652576040518181527f032bc66be43dbccb7487781d168eb7bda224628a3b2c3388bdf69b532a3a16119060200160405180910390a15050505050565b6001600160a01b03851633148061189a575061189a85336103de565b6118b65760405162461bcd60e51b81526004016104bf906130c9565b6106528585858585611e83565b81518351146119255760405162461bcd60e51b815260206004820152602860248201527f455243313135353a2069647320616e6420616d6f756e7473206c656e677468206044820152670dad2e6dac2e8c6d60c31b60648201526084016104bf565b6001600160a01b03841661194b5760405162461bcd60e51b81526004016104bf9061312a565b3360005b8451811015611a3257600085828151811061196c5761196c612d82565b60200260200101519050600085838151811061198a5761198a612d82565b602090810291909101810151600084815280835260408082206001600160a01b038e1683529093529190912054909150818110156119da5760405162461bcd60e51b81526004016104bf9061316f565b6000838152602081815260408083206001600160a01b038e8116855292528083208585039055908b16825281208054849290611a17908490613117565b9250508190555050505080611a2b90612dae565b905061194f565b50846001600160a01b0316866001600160a01b0316826001600160a01b03167f4a39dc06d4c0dbc64b70af90fd698a233a518aa5d07e595d983b8c0526c8f7fb8787604051611a829291906131b9565b60405180910390a4611a98818787878787611fad565b505050505050565b60408051600180825281830190925260609160009190602080830190803683370190505090508281600081518110611ada57611ada612d82565b602090810291909101015292915050565b6001600160a01b0384163b15611a985760405163f23a6e6160e01b81526001600160a01b0385169063f23a6e6190611b2f90899089908890889088906004016131de565b6020604051808303816000875af1925050508015611b6a575060408051601f3d908101601f19168201909252611b6791810190613218565b60015b611c1657611b76613235565b806308c379a003611baf5750611b8a613251565b80611b955750611bb1565b8060405162461bcd60e51b81526004016104bf919061226b565b505b60405162461bcd60e51b815260206004820152603460248201527f455243313135353a207472616e7366657220746f206e6f6e2d455243313135356044820152732932b1b2b4bb32b91034b6b83632b6b2b73a32b960611b60648201526084016104bf565b6001600160e01b0319811663f23a6e6160e01b146115865760405162461bcd60e51b81526004016104bf906132da565b816001600160a01b0316836001600160a01b031603611cb95760405162461bcd60e51b815260206004820152602960248201527f455243313135353a2073657474696e6720617070726f76616c20737461747573604482015268103337b91039b2b63360b91b60648201526084016104bf565b6001600160a01b03838116600081815260016020908152604080832094871680845294825291829020805460ff191686151590811790915591519182527f17307eab39ab6107e8899845ad3d59bd9653f200f220920489ca2b5937696c31910160405180910390a3505050565b60006104eb611e7c611e778460008190506008817eff00ff00ff00ff00ff00ff00ff00ff00ff00ff00ff00ff00ff00ff00ff00ff16901b6008827fff00ff00ff00ff00ff00ff00ff00ff00ff00ff00ff00ff00ff00ff00ff00ff0016901c1790506010817dffff0000ffff0000ffff0000ffff0000ffff0000ffff0000ffff0000ffff16901b6010827fffff0000ffff0000ffff0000ffff0000ffff0000ffff0000ffff0000ffff000016901c1790506020817bffffffff00000000ffffffff00000000ffffffff00000000ffffffff16901b6020827fffffffff00000000ffffffff00000000ffffffff00000000ffffffff0000000016901c17905060408177ffffffffffffffff0000000000000000ffffffffffffffff16901b60408277ffffffffffffffff0000000000000000ffffffffffffffff1916901c179050608081901b608082901c179050919050565b612068565b6014015190565b6001600160a01b038416611ea95760405162461bcd60e51b81526004016104bf9061312a565b336000611eb585611aa0565b90506000611ec285611aa0565b90506000868152602081815260408083206001600160a01b038c16845290915290205485811015611f055760405162461bcd60e51b81526004016104bf9061316f565b6000878152602081815260408083206001600160a01b038d8116855292528083208985039055908a16825281208054889290611f42908490613117565b909155505060408051888152602081018890526001600160a01b03808b16928c821692918816917fc3d58168c5ae7397731d063d5bbf3d657854427343f4c083240f7aacaa2d0f62910160405180910390a4611fa2848a8a8a8a8a611aeb565b505050505050505050565b6001600160a01b0384163b15611a985760405163bc197c8160e01b81526001600160a01b0385169063bc197c8190611ff19089908990889088908890600401613322565b6020604051808303816000875af192505050801561202c575060408051601f3d908101601f1916820190925261202991810190613218565b60015b61203857611b76613235565b6001600160e01b0319811663bc197c8160e01b146115865760405162461bcd60e51b81526004016104bf906132da565b60408051602080825281830190925260609160208201818036833750505060208101929092525090565b604051806080016040528060006001600160401b0316815260200160006001600160a01b03168152602001600081526020016120ef6040518060800160405280600081526020016000815260200160008152602001606081525090565b905290565b82805482825590600052602060002090810192821561212f579160200282015b8281111561212f578235825591602001919060010190612114565b50610940929150612176565b82805482825590600052602060002090810192821561212f579160200282015b8281111561212f57825182559160200191906001019061215b565b5b808211156109405760008155600101612177565b6001600160a01b03811681146121a057600080fd5b50565b600080604083850312156121b657600080fd5b82356121c18161218b565b946020939093013593505050565b6001600160e01b0319811681146121a057600080fd5b6000602082840312156121f757600080fd5b813561061a816121cf565b60006020828403121561221457600080fd5b5035919050565b60005b8381101561223657818101518382015260200161221e565b50506000910152565b6000815180845261225781602086016020860161221b565b601f01601f19169290920160200192915050565b60208152600061061a602083018461223f565b634e487b7160e01b600052604160045260246000fd5b608081018181106001600160401b03821117156122b3576122b361227e565b60405250565b601f8201601f191681016001600160401b03811182821017156122de576122de61227e565b6040525050565b60006001600160401b038211156122fe576122fe61227e565b5060051b60200190565b600082601f83011261231957600080fd5b81356020612326826122e5565b60405161233382826122b9565b83815260059390931b850182019282810191508684111561235357600080fd5b8286015b8481101561236e5780358352918301918301612357565b509695505050505050565b60006001600160401b038211156123925761239261227e565b50601f01601f191660200190565b600082601f8301126123b157600080fd5b81356123bc81612379565b6040516123c982826122b9565b8281528560208487010111156123de57600080fd5b82602086016020830137600092810160200192909252509392505050565b600080600080600060a0868803121561241457600080fd5b853561241f8161218b565b9450602086013561242f8161218b565b935060408601356001600160401b038082111561244b57600080fd5b61245789838a01612308565b9450606088013591508082111561246d57600080fd5b61247989838a01612308565b9350608088013591508082111561248f57600080fd5b5061249c888289016123a0565b9150509295509295909350565b6020808252825182820181905260009190848201906040850190845b818110156124ea5783516001600160401b0316835292840192918401916001016124c5565b50909695505050505050565b6000806040838503121561250957600080fd5b82356001600160401b038082111561252057600080fd5b818501915085601f83011261253457600080fd5b81356020612541826122e5565b60405161254e82826122b9565b83815260059390931b850182019282810191508984111561256e57600080fd5b948201945b838610156125955785356125868161218b565b82529482019490820190612573565b965050860135925050808211156125ab57600080fd5b506125b885828601612308565b9150509250929050565b600081518084526020808501945080840160005b838110156125f2578151875295820195908201906001016125d6565b509495945050505050565b60208152600061061a60208301846125c2565b805182526020810151602083015260408101516040830152600060608201516080606085015261264360808501826125c2565b949350505050565b602081526001600160401b03825116602082015260018060a01b036020830151166040820152604082015160608201526000606083015160808084015261264360a0840182612610565b80356001600160401b03811681146126ac57600080fd5b919050565b6000602082840312156126c357600080fd5b61061a82612695565b85815284602082015283604082015282606082015260a0608082015260006126f760a083018461223f565b979650505050505050565b60008083601f84011261271457600080fd5b5081356001600160401b0381111561272b57600080fd5b6020830191508360208260051b850101111561274657600080fd5b9250929050565b600080600080600080600060c0888a03121561276857600080fd5b61277188612695565b965060208801356127818161218b565b955060408801359450606088013593506080880135925060a08801356001600160401b038111156127b157600080fd5b6127bd8a828b01612702565b989b979a50959850939692959293505050565b60008060008060008060008060e0898b0312156127ec57600080fd5b6127f589612695565b975060208901356128058161218b565b965060408901359550606089013594506080890135935060a08901356001600160401b0381111561283557600080fd5b6128418b828c01612702565b999c989b50969995989497949560c00135949350505050565b6000806000806080858703121561287057600080fd5b843561287b8161218b565b935060208501356001600160401b038082111561289757600080fd5b90860190608082890312156128ab57600080fd5b6040516128b781612294565b8235815260208301356020820152604083013560408201526060830135828111156128e157600080fd5b6128ed8a828601612308565b6060830152508095505060408701359350606087013591508082111561291257600080fd5b5061291f878288016123a0565b91505092959194509250565b80151581146121a057600080fd5b6000806040838503121561294c57600080fd5b82356129578161218b565b915060208301356129678161292b565b809150509250929050565b6000806040838503121561298557600080fd5b82356129908161218b565b915061299e60208401612695565b90509250929050565b80604081018310156104eb57600080fd5b60008060008060008061014087890312156129d257600080fd5b6129db87612695565b955060208701356001600160401b038111156129f657600080fd5b612a0289828a01612702565b9096509450612a16905088604089016129a7565b9250610100870188811115612a2a57600080fd5b608088019250612a3a89826129a7565b9150509295509295509295565b60008083601f840112612a5957600080fd5b5081356001600160401b03811115612a7057600080fd5b60208301915083602082850101111561274657600080fd5b60008060008060008060008060a0898b031215612aa457600080fd5b8835612aaf8161218b565b97506020890135612abf8161218b565b965060408901356001600160401b0380821115612adb57600080fd5b612ae78c838d01612702565b909850965060608b0135915080821115612b0057600080fd5b612b0c8c838d01612702565b909650945060808b0135915080821115612b2557600080fd5b50612b328b828c01612a47565b999c989b5096995094979396929594505050565b602081528151602082015260208201516040820152604082015160608201526000606083015160c06080840152612b8060e08401826125c2565b9050608084015160a084015260a0840151601f198483030160c0850152612ba7828261223f565b95945050505050565b60008060408385031215612bc357600080fd5b8235612bce8161218b565b915060208301356129678161218b565b60008060008060008060a08789031215612bf757600080fd5b8635612c028161218b565b95506020870135612c128161218b565b9450604087013593506060870135925060808701356001600160401b03811115612c3b57600080fd5b612c4789828a01612a47565b979a9699509497509295939492505050565b600080600080600060a08688031215612c7157600080fd5b8535612c7c8161218b565b94506020860135612c8c8161218b565b9350604086013592506060860135915060808601356001600160401b03811115612cb557600080fd5b61249c888289016123a0565b600181811c90821680612cd557607f821691505b602082108103612cf557634e487b7160e01b600052602260045260246000fd5b50919050565b6000808454612d0981612cc1565b60018281168015612d215760018114612d3657612d65565b60ff1984168752821515830287019450612d65565b8860005260208060002060005b85811015612d5c5781548a820152908401908201612d43565b50505082870194505b505050508351612d7981836020880161221b565b01949350505050565b634e487b7160e01b600052603260045260246000fd5b634e487b7160e01b600052601160045260246000fd5b600060018201612dc057612dc0612d98565b5060010190565b81835260006001600160fb1b03831115612de057600080fd5b8260051b80836020870137939093016020019392505050565b602081526000612643602083018486612dc7565b600060208284031215612e1f57600080fd5b5051919050565b60c08101818360005b6006811015612e4e578151835260209283019290910190600101612e2f565b50505092915050565b600060208284031215612e6957600080fd5b81516001600160401b03811115612e7f57600080fd5b8201601f81018413612e9057600080fd5b8051612e9b81612379565b604051612ea882826122b9565b828152866020848601011115612ebd57600080fd5b612ece83602083016020870161221b565b9695505050505050565b601f821115612f1e57600081815260208120601f850160051c81016020861015612eff5750805b601f850160051c820191505b81811015611a9857828155600101612f0b565b505050565b81516001600160401b03811115612f3c57612f3c61227e565b612f5081612f4a8454612cc1565b84612ed8565b602080601f831160018114612f855760008415612f6d5750858301515b600019600386901b1c1916600185901b178555611a98565b600085815260208120601f198616915b82811015612fb457888601518255948401946001909101908401612f95565b5085821015612fd25787850151600019600388901b60f8161c191681555b5050505050600190811b01905550565b6001600160401b038716815260018060a01b038616602082015284604082015283606082015282608082015260c060a0820152600061302460c08301846125c2565b98975050505050505050565b60006020828403121561304257600080fd5b815161061a8161292b565b8281526040602082015260006126436040830184612610565b600061014080835261307b818401898b612dc7565b915050604080876020850137606083018660005b60028110156130ac5783828437918301919083019060010161308f565b505050808560e08501375082610120830152979650505050505050565b6020808252602e908201527f455243313135353a2063616c6c6572206973206e6f7420746f6b656e206f776e60408201526d195c881bdc88185c1c1c9bdd995960921b606082015260800190565b808201808211156104eb576104eb612d98565b60208082526025908201527f455243313135353a207472616e7366657220746f20746865207a65726f206164604082015264647265737360d81b606082015260800190565b6020808252602a908201527f455243313135353a20696e73756666696369656e742062616c616e636520666f60408201526939103a3930b739b332b960b11b606082015260800190565b6040815260006131cc60408301856125c2565b8281036020840152612ba781856125c2565b6001600160a01b03868116825285166020820152604081018490526060810183905260a0608082018190526000906126f79083018461223f565b60006020828403121561322a57600080fd5b815161061a816121cf565b600060033d111561324e5760046000803e5060005160e01c5b90565b600060443d101561325f5790565b6040516003193d81016004833e81513d6001600160401b03816024840111818411171561328e57505050505090565b82850191508151818111156132a65750505050505090565b843d87010160208285010111156132c05750505050505090565b6132cf602082860101876122b9565b509095945050505050565b60208082526028908201527f455243313135353a204552433131353552656365697665722072656a656374656040820152676420746f6b656e7360c01b606082015260800190565b6001600160a01b0386811682528516602082015260a06040820181905260009061334e908301866125c2565b828103606084015261336081866125c2565b90508281036080840152613024818561223f56fea26469706673582212208915de988d90594265c30e1d36bcee65c80dc69ccc5c69934124ba8c69f99d3664736f6c63430008130033",
    "linkReferences": {}
  },
  "methodIdentifiers": {
    "balanceOf(address,uint256)": "00fdd58e",
    "balanceOfBatch(address[],uint256[])": "4e1273f4",
    "convertUint256ToUint64(uint256)": "825747cb",
    "getSupportedRequests()": "37ba9523",
    "getZKPRequest(uint64)": "c76d0845",
    "initBadge(address,(uint256,uint256,uint256,uint256[]),uint256,string)": "9fd4ecc7",
    "isApprovedForAll(address,address)": "e985e9c5",
    "locked(uint256)": "b45a3c0e",
    "onERC1155BatchReceived(address,address,uint256[],uint256[],bytes)": "bc197c81",
    "onERC1155Received(address,address,uint256,uint256,bytes)": "f23a6e61",
    "proofs(address,uint64)": "b45c0fdf",
    "requestQueries(uint64)": "96bf4741",
    "requestValidators(uint64)": "a8723114",
    "safeBatchTransferFrom(address,address,uint256[],uint256[],bytes)": "2eb2c2d6",
    "safeTransferFrom(address,address,uint256,uint256,bytes)": "f242432a",
    "setApprovalForAll(address,bool)": "a22cb465",
    "setZKPRequest(uint64,address,uint256,uint256,uint256,uint256[])": "9abdc645",
    "setZKPRequestRaw(uint64,address,uint256,uint256,uint256,uint256[],uint256)": "9e621bcf",
    "submitZKPResponse(uint64,uint256[],uint256[2],uint256[2][2],uint256[2])": "b68967e2",
    "supportsInterface(bytes4)": "01ffc9a7",
    "tokenReptationData(uint256)": "76012526",
    "totalSupply()": "18160ddd",
    "uri(uint256)": "0e89341c"
  },
  "id": 11
}