{
  "abi": [
    {
      "inputs": [],
      "stateMutability": "nonpayable",
      "type": "constructor"
    },
    {
      "inputs": [],
      "name": "ErrLocked",
      "type": "error"
    },
    {
      "inputs": [],
      "name": "ErrNotFound",
      "type": "error"
    },
    {
      "anonymous": false,
      "inputs": [
        {
          "indexed": true,
          "internalType": "address",
          "name": "account",
          "type": "address"
        },
        {
          "indexed": true,
          "internalType": "address",
          "name": "operator",
          "type": "address"
        },
        {
          "indexed": false,
          "internalType": "bool",
          "name": "approved",
          "type": "bool"
        }
      ],
      "name": "ApprovalForAll",
      "type": "event"
    },
    {
      "anonymous": false,
      "inputs": [
        {
          "indexed": true,
          "internalType": "uint256",
          "name": "_tokenId",
          "type": "uint256"
        },
        {
          "indexed": false,
          "internalType": "uint256",
          "name": "_expireTimestamp",
          "type": "uint256"
        },
        {
          "components": [
            {
              "internalType": "uint256",
              "name": "schema",
              "type": "uint256"
            },
            {
              "internalType": "uint256",
              "name": "claimPathKey",
              "type": "uint256"
            },
            {
              "internalType": "uint256",
              "name": "operator",
              "type": "uint256"
            },
            {
              "internalType": "uint256[]",
              "name": "value",
              "type": "uint256[]"
            }
          ],
          "indexed": false,
          "internalType": "struct ZKBadge.Query",
          "name": "_query",
          "type": "tuple"
        }
      ],
      "name": "InitBadge",
      "type": "event"
    },
    {
      "anonymous": false,
      "inputs": [
        {
          "indexed": false,
          "internalType": "uint256",
          "name": "tokenId",
          "type": "uint256"
        }
      ],
      "name": "Locked",
      "type": "event"
    },
    {
      "anonymous": false,
      "inputs": [
        {
          "indexed": true,
          "internalType": "uint256",
          "name": "_tokenId",
          "type": "uint256"
        },
        {
          "indexed": true,
          "internalType": "address",
          "name": "_to",
          "type": "address"
        }
      ],
      "name": "MintBadge",
      "type": "event"
    },
    {
      "anonymous": false,
      "inputs": [
        {
          "indexed": true,
          "internalType": "address",
          "name": "operator",
          "type": "address"
        },
        {
          "indexed": true,
          "internalType": "address",
          "name": "from",
          "type": "address"
        },
        {
          "indexed": true,
          "internalType": "address",
          "name": "to",
          "type": "address"
        },
        {
          "indexed": false,
          "internalType": "uint256[]",
          "name": "ids",
          "type": "uint256[]"
        },
        {
          "indexed": false,
          "internalType": "uint256[]",
          "name": "values",
          "type": "uint256[]"
        }
      ],
      "name": "TransferBatch",
      "type": "event"
    },
    {
      "anonymous": false,
      "inputs": [
        {
          "indexed": true,
          "internalType": "address",
          "name": "operator",
          "type": "address"
        },
        {
          "indexed": true,
          "internalType": "address",
          "name": "from",
          "type": "address"
        },
        {
          "indexed": true,
          "internalType": "address",
          "name": "to",
          "type": "address"
        },
        {
          "indexed": false,
          "internalType": "uint256",
          "name": "id",
          "type": "uint256"
        },
        {
          "indexed": false,
          "internalType": "uint256",
          "name": "value",
          "type": "uint256"
        }
      ],
      "name": "TransferSingle",
      "type": "event"
    },
    {
      "anonymous": false,
      "inputs": [
        {
          "indexed": false,
          "internalType": "string",
          "name": "value",
          "type": "string"
        },
        {
          "indexed": true,
          "internalType": "uint256",
          "name": "id",
          "type": "uint256"
        }
      ],
      "name": "URI",
      "type": "event"
    },
    {
      "anonymous": false,
      "inputs": [
        {
          "indexed": false,
          "internalType": "uint256",
          "name": "tokenId",
          "type": "uint256"
        }
      ],
      "name": "Unlocked",
      "type": "event"
    },
    {
      "inputs": [
        {
          "internalType": "address",
          "name": "account",
          "type": "address"
        },
        {
          "internalType": "uint256",
          "name": "id",
          "type": "uint256"
        }
      ],
      "name": "balanceOf",
      "outputs": [
        {
          "internalType": "uint256",
          "name": "",
          "type": "uint256"
        }
      ],
      "stateMutability": "view",
      "type": "function"
    },
    {
      "inputs": [
        {
          "internalType": "address[]",
          "name": "accounts",
          "type": "address[]"
        },
        {
          "internalType": "uint256[]",
          "name": "ids",
          "type": "uint256[]"
        }
      ],
      "name": "balanceOfBatch",
      "outputs": [
        {
          "internalType": "uint256[]",
          "name": "",
          "type": "uint256[]"
        }
      ],
      "stateMutability": "view",
      "type": "function"
    },
    {
      "inputs": [
        {
          "internalType": "uint256",
          "name": "value",
          "type": "uint256"
        }
      ],
      "name": "convertUint256ToUint64",
      "outputs": [
        {
          "internalType": "uint64",
          "name": "",
          "type": "uint64"
        }
      ],
      "stateMutability": "pure",
      "type": "function"
    },
    {
      "inputs": [],
      "name": "getSupportedRequests",
      "outputs": [
        {
          "internalType": "uint64[]",
          "name": "arr",
          "type": "uint64[]"
        }
      ],
      "stateMutability": "view",
      "type": "function"
    },
    {
      "inputs": [
        {
          "internalType": "uint64",
          "name": "requestId",
          "type": "uint64"
        }
      ],
      "name": "getZKPRequest",
      "outputs": [
        {
          "components": [
            {
              "internalType": "uint256",
              "name": "schema",
              "type": "uint256"
            },
            {
              "internalType": "uint256",
              "name": "claimPathKey",
              "type": "uint256"
            },
            {
              "internalType": "uint256",
              "name": "operator",
              "type": "uint256"
            },
            {
              "internalType": "uint256[]",
              "name": "value",
              "type": "uint256[]"
            },
            {
              "internalType": "uint256",
              "name": "queryHash",
              "type": "uint256"
            },
            {
              "internalType": "string",
              "name": "circuitId",
              "type": "string"
            }
          ],
          "internalType": "struct ICircuitValidator.CircuitQuery",
          "name": "",
          "type": "tuple"
        }
      ],
      "stateMutability": "view",
      "type": "function"
    },
    {
      "inputs": [
        {
          "internalType": "contract ICircuitValidator",
          "name": "_validator",
          "type": "address"
        },
        {
          "components": [
            {
              "internalType": "uint256",
              "name": "schema",
              "type": "uint256"
            },
            {
              "internalType": "uint256",
              "name": "claimPathKey",
              "type": "uint256"
            },
            {
              "internalType": "uint256",
              "name": "operator",
              "type": "uint256"
            },
            {
              "internalType": "uint256[]",
              "name": "value",
              "type": "uint256[]"
            }
          ],
          "internalType": "struct ZKBadge.Query",
          "name": "_query",
          "type": "tuple"
        },
        {
          "internalType": "uint256",
          "name": "_expireTimestamp",
          "type": "uint256"
        },
        {
          "internalType": "string",
          "name": "_tokenURI",
          "type": "string"
        }
      ],
      "name": "initBadge",
      "outputs": [],
      "stateMutability": "nonpayable",
      "type": "function"
    },
    {
      "inputs": [
        {
          "internalType": "address",
          "name": "account",
          "type": "address"
        },
        {
          "internalType": "address",
          "name": "operator",
          "type": "address"
        }
      ],
      "name": "isApprovedForAll",
      "outputs": [
        {
          "internalType": "bool",
          "name": "",
          "type": "bool"
        }
      ],
      "stateMutability": "view",
      "type": "function"
    },
    {
      "inputs": [
        {
          "internalType": "uint256",
          "name": "tokenId",
          "type": "uint256"
        }
      ],
      "name": "locked",
      "outputs": [
        {
          "internalType": "bool",
          "name": "",
          "type": "bool"
        }
      ],
      "stateMutability": "view",
      "type": "function"
    },
    {
      "inputs": [
        {
          "internalType": "address",
          "name": "",
          "type": "address"
        },
        {
          "internalType": "uint64",
          "name": "",
          "type": "uint64"
        }
      ],
      "name": "proofs",
      "outputs": [
        {
          "internalType": "bool",
          "name": "",
          "type": "bool"
        }
      ],
      "stateMutability": "view",
      "type": "function"
    },
    {
      "inputs": [
        {
          "internalType": "uint64",
          "name": "",
          "type": "uint64"
        }
      ],
      "name": "requestQueries",
      "outputs": [
        {
          "internalType": "uint256",
          "name": "schema",
          "type": "uint256"
        },
        {
          "internalType": "uint256",
          "name": "claimPathKey",
          "type": "uint256"
        },
        {
          "internalType": "uint256",
          "name": "operator",
          "type": "uint256"
        },
        {
          "internalType": "uint256",
          "name": "queryHash",
          "type": "uint256"
        },
        {
          "internalType": "string",
          "name": "circuitId",
          "type": "string"
        }
      ],
      "stateMutability": "view",
      "type": "function"
    },
    {
      "inputs": [
        {
          "internalType": "uint64",
          "name": "",
          "type": "uint64"
        }
      ],
      "name": "requestValidators",
      "outputs": [
        {
          "internalType": "contract ICircuitValidator",
          "name": "",
          "type": "address"
        }
      ],
      "stateMutability": "view",
      "type": "function"
    },
    {
      "inputs": [
        {
          "internalType": "address",
          "name": "from",
          "type": "address"
        },
        {
          "internalType": "address",
          "name": "to",
          "type": "address"
        },
        {
          "internalType": "uint256[]",
          "name": "ids",
          "type": "uint256[]"
        },
        {
          "internalType": "uint256[]",
          "name": "amounts",
          "type": "uint256[]"
        },
        {
          "internalType": "bytes",
          "name": "data",
          "type": "bytes"
        }
      ],
      "name": "safeBatchTransferFrom",
      "outputs": [],
      "stateMutability": "nonpayable",
      "type": "function"
    },
    {
      "inputs": [
        {
          "internalType": "address",
          "name": "from",
          "type": "address"
        },
        {
          "internalType": "address",
          "name": "to",
          "type": "address"
        },
        {
          "internalType": "uint256",
          "name": "tokenId",
          "type": "uint256"
        },
        {
          "internalType": "uint256",
          "name": "amount",
          "type": "uint256"
        },
        {
          "internalType": "bytes",
          "name": "data",
          "type": "bytes"
        }
      ],
      "name": "safeTransferFrom",
      "outputs": [],
      "stateMutability": "nonpayable",
      "type": "function"
    },
    {
      "inputs": [
        {
          "internalType": "address",
          "name": "operator",
          "type": "address"
        },
        {
          "internalType": "bool",
          "name": "approved",
          "type": "bool"
        }
      ],
      "name": "setApprovalForAll",
      "outputs": [],
      "stateMutability": "nonpayable",
      "type": "function"
    },
    {
      "inputs": [
        {
          "internalType": "uint64",
          "name": "requestId",
          "type": "uint64"
        },
        {
          "internalType": "contract ICircuitValidator",
          "name": "validator",
          "type": "address"
        },
        {
          "internalType": "uint256",
          "name": "schema",
          "type": "uint256"
        },
        {
          "internalType": "uint256",
          "name": "claimPathKey",
          "type": "uint256"
        },
        {
          "internalType": "uint256",
          "name": "operator",
          "type": "uint256"
        },
        {
          "internalType": "uint256[]",
          "name": "value",
          "type": "uint256[]"
        }
      ],
      "name": "setZKPRequest",
      "outputs": [
        {
          "internalType": "bool",
          "name": "",
          "type": "bool"
        }
      ],
      "stateMutability": "nonpayable",
      "type": "function"
    },
    {
      "inputs": [
        {
          "internalType": "uint64",
          "name": "requestId",
          "type": "uint64"
        },
        {
          "internalType": "contract ICircuitValidator",
          "name": "validator",
          "type": "address"
        },
        {
          "internalType": "uint256",
          "name": "schema",
          "type": "uint256"
        },
        {
          "internalType": "uint256",
          "name": "claimPathKey",
          "type": "uint256"
        },
        {
          "internalType": "uint256",
          "name": "operator",
          "type": "uint256"
        },
        {
          "internalType": "uint256[]",
          "name": "value",
          "type": "uint256[]"
        },
        {
          "internalType": "uint256",
          "name": "queryHash",
          "type": "uint256"
        }
      ],
      "name": "setZKPRequestRaw",
      "outputs": [
        {
          "internalType": "bool",
          "name": "",
          "type": "bool"
        }
      ],
      "stateMutability": "nonpayable",
      "type": "function"
    },
    {
      "inputs": [
        {
          "internalType": "uint64",
          "name": "requestId",
          "type": "uint64"
        },
        {
          "internalType": "uint256[]",
          "name": "inputs",
          "type": "uint256[]"
        },
        {
          "internalType": "uint256[2]",
          "name": "a",
          "type": "uint256[2]"
        },
        {
          "internalType": "uint256[2][2]",
          "name": "b",
          "type": "uint256[2][2]"
        },
        {
          "internalType": "uint256[2]",
          "name": "c",
          "type": "uint256[2]"
        }
      ],
      "name": "submitZKPResponse",
      "outputs": [
        {
          "internalType": "bool",
          "name": "",
          "type": "bool"
        }
      ],
      "stateMutability": "nonpayable",
      "type": "function"
    },
    {
      "inputs": [
        {
          "internalType": "bytes4",
          "name": "interfaceId",
          "type": "bytes4"
        }
      ],
      "name": "supportsInterface",
      "outputs": [
        {
          "internalType": "bool",
          "name": "",
          "type": "bool"
        }
      ],
      "stateMutability": "view",
      "type": "function"
    },
    {
      "inputs": [
        {
          "internalType": "uint256",
          "name": "id",
          "type": "uint256"
        }
      ],
      "name": "tokenReptationData",
      "outputs": [
        {
          "components": [
            {
              "internalType": "uint64",
              "name": "requestId",
              "type": "uint64"
            },
            {
              "internalType": "address",
              "name": "issuer",
              "type": "address"
            },
            {
              "internalType": "uint256",
              "name": "expireTimestamp",
              "type": "uint256"
            },
            {
              "components": [
                {
                  "internalType": "uint256",
                  "name": "schema",
                  "type": "uint256"
                },
                {
                  "internalType": "uint256",
                  "name": "claimPathKey",
                  "type": "uint256"
                },
                {
                  "internalType": "uint256",
                  "name": "operator",
                  "type": "uint256"
                },
                {
                  "internalType": "uint256[]",
                  "name": "value",
                  "type": "uint256[]"
                }
              ],
              "internalType": "struct ZKBadge.Query",
              "name": "query",
              "type": "tuple"
            }
          ],
          "internalType": "struct ZKBadge.Reptation",
          "name": "reptation",
          "type": "tuple"
        }
      ],
      "stateMutability": "view",
      "type": "function"
    },
    {
      "inputs": [],
      "name": "totalSupply",
      "outputs": [
        {
          "internalType": "uint256",
          "name": "",
          "type": "uint256"
        }
      ],
      "stateMutability": "view",
      "type": "function"
    },
    {
      "inputs": [
        {
          "internalType": "uint256",
          "name": "tokenId",
          "type": "uint256"
        }
      ],
      "name": "uri",
      "outputs": [
        {
          "internalType": "string",
          "name": "",
          "type": "string"
        }
      ],
      "stateMutability": "view",
      "type": "function"
    }
  ],
  "bytecode": {
    "object": "0x60a0604052600060809081526003906200001a90826200010e565b506009805460ff191660011790553480156200003557600080fd5b50604080516020810190915260008152620000508162000057565b50620001da565b60026200006582826200010e565b5050565b634e487b7160e01b600052604160045260246000fd5b600181811c908216806200009457607f821691505b602082108103620000b557634e487b7160e01b600052602260045260246000fd5b50919050565b601f8211156200010957600081815260208120601f850160051c81016020861015620000e45750805b601f850160051c820191505b818110156200010557828155600101620000f0565b5050505b505050565b81516001600160401b038111156200012a576200012a62000069565b62000142816200013b84546200007f565b84620000bb565b602080601f8311600181146200017a5760008415620001615750858301515b600019600386901b1c1916600185901b17855562000105565b600085815260208120601f198616915b82811015620001ab578886015182559484019460019091019084016200018a565b5085821015620001ca5787850151600019600388901b60f8161c191681555b5050505050600190811b01905550565b6131ad80620001ea6000396000f3fe608060405234801561001057600080fd5b50600436106101365760003560e01c80639abdc645116100b8578063b45a3c0e1161007c578063b45a3c0e146102f2578063b45c0fdf14610305578063b68967e214610333578063c76d084514610346578063e985e9c514610366578063f242432a146103a257600080fd5b80639abdc645146102655780639e621bcf146102785780639fd4ecc71461028b578063a22cb4651461029e578063a8723114146102b157600080fd5b806337ba9523116100ff57806337ba9523146101c15780634e1273f4146101d657806376012526146101f6578063825747cb1461021657806396bf47411461024157600080fd5b8062fdd58e1461013b57806301ffc9a7146101615780630e89341c1461018457806318160ddd146101a45780632eb2c2d6146101ac575b600080fd5b61014e610149366004612120565b6103b5565b6040519081526020015b60405180910390f35b61017461016f366004612162565b61044e565b6040519015158152602001610158565b61019761019236600461217f565b610473565b60405161015891906121e8565b600a5461014e565b6101bf6101ba366004612379565b610553565b005b6101c961058b565b6040516101589190612426565b6101e96101e4366004612473565b610615565b604051610158919061257a565b61020961020436600461217f565b61073e565b60405161015891906125c8565b61022961022436600461217f565b610819565b6040516001600160401b039091168152602001610158565b61025461024f36600461262e565b610876565b604051610158959493929190612649565b6101746102733660046126ca565b61092f565b61017461028636600461274d565b610a76565b6101bf6102993660046127d7565b610c21565b6101bf6102ac3660046128b6565b610dfe565b6102da6102bf36600461262e565b6007602052600090815260409020546001600160a01b031681565b6040516001600160a01b039091168152602001610158565b61017461030036600461217f565b610e30565b6101746103133660046128ef565b600560209081526000928352604080842090915290825290205460ff1681565b610174610341366004612935565b610e60565b61035961035436600461262e565b611130565b60405161015891906129c4565b610174610374366004612a2e565b6001600160a01b03918216600090815260016020908152604080832093909416825291909152205460ff1690565b6101bf6103b0366004612a5c565b61129e565b60006001600160a01b0383166104255760405162461bcd60e51b815260206004820152602a60248201527f455243313135353a2061646472657373207a65726f206973206e6f742061207660448201526930b634b21037bbb732b960b11b60648201526084015b60405180910390fd5b506000818152602081815260408083206001600160a01b03861684529091529020545b92915050565b60006001600160e01b03198216635a2d1e0760e11b14806104485750610448826112cf565b60008181526004602052604081208054606092919061049190612ac4565b80601f01602080910402602001604051908101604052809291908181526020018280546104bd90612ac4565b801561050a5780601f106104df5761010080835404028352916020019161050a565b820191906000526020600020905b8154815290600101906020018083116104ed57829003601f168201915b505050505090506000815111610528576105238361131f565b61054c565b60038160405160200161053c929190612afe565b6040516020818303038152906040525b9392505050565b60095460ff16156105775760405163bd291a9560e01b815260040160405180910390fd5b61058485858585856113b3565b5050505050565b6060600880548060200260200160405190810160405280929190818152602001828054801561060b57602002820191906000526020600020906000905b82829054906101000a90046001600160401b03166001600160401b0316815260200190600801906020826007010492830192600103820291508084116105c85790505b5050505050905090565b6060815183511461067a5760405162461bcd60e51b815260206004820152602960248201527f455243313135353a206163636f756e747320616e6420696473206c656e677468604482015268040dad2e6dac2e8c6d60bb1b606482015260840161041c565b600083516001600160401b03811115610695576106956121fb565b6040519080825280602002602001820160405280156106be578160200160208202803683370190505b50905060005b8451811015610736576107098582815181106106e2576106e2612b85565b60200260200101518583815181106106fc576106fc612b85565b60200260200101516103b5565b82828151811061071b5761071b612b85565b602090810291909101015261072f81612bb1565b90506106c4565b509392505050565b61074661200f565b6000828152600b602090815260409182902082516080808201855282546001600160401b0381168352600160401b90046001600160a01b03168285015260018301548286015284519081018552600283018054825260038401548286015260048401548287015260058401805487518188028101880190985280885293969495606080890196949593949086019390929183018282801561080657602002820191906000526020600020905b8154815260200190600101908083116107f2575b5050509190925250505090525092915050565b60006001600160401b038211156108725760405162461bcd60e51b815260206004820181905260248201527f56616c756520746f6f206c6172676520746f2066697420696e2075696e743634604482015260640161041c565b5090565b6006602052600090815260409020805460018201546002830154600484015460058501805494959394929391926108ac90612ac4565b80601f01602080910402602001604051908101604052809291908181526020018280546108d890612ac4565b80156109255780601f106108fa57610100808354040283529160200191610925565b820191906000526020600020905b81548152906001019060200180831161090857829003601f168201915b5050505050905085565b6000807312d8c87a61daa6dd31d8196187cfa37d1c6471536340ec6e4985856040518363ffffffff1660e01b815260040161096b929190612bfc565b602060405180830381865af4158015610988573d6000803e3d6000fd5b505050506040513d601f19601f820116820180604052508101906109ac9190612c10565b9050600073b588b8f07012dc958aa90efc7d3cf943057f17d763f5b4a7886040518060c001604052808b8152602001600081526020018981526020018a815260200160008152602001858152506040518263ffffffff1660e01b8152600401610a159190612c29565b602060405180830381865af4158015610a32573d6000803e3d6000fd5b505050506040513d601f19601f82011682018060405250810190610a569190612c10565b9050610a688a8a8a8a8a8a8a88610a76565b9a9950505050505050505050565b6001600160401b0388166000908152600760205260408120546001600160a01b0316610af6576008805460018101825560008290527ff3f7a9fe364faab93b216da50a3214154f22a0a2b415b23a84c8169e8b636ee36004820401805460039092169092026101000a6001600160401b0381810219909216918c16021790555b6001600160401b038916600090815260066020526040808220600480820186905560029091018890558151632cd1575560e11b815291516001600160a01b038c16936359a2aeaa9380840193919291908290030181865afa158015610b5f573d6000803e3d6000fd5b505050506040513d6000823e601f3d908101601f19168201604052610b879190810190612c5a565b6001600160401b038a16600090815260066020526040902060050190610bad9082612d26565b506001600160401b038916600090815260066020526040902060018101879055878155610bde906003018585612071565b50506001600160401b038816600090815260076020526040902080546001600160a01b0389166001600160a01b0319909116179055600198975050505050505050565b6000600a546001610c329190612de5565b905030639abdc645610c4383610819565b878760000151886020015189604001518a606001516040518763ffffffff1660e01b8152600401610c7996959493929190612df8565b6020604051808303816000875af1158015610c98573d6000803e3d6000fd5b505050506040513d601f19601f82011682018060405250810190610cbc9190612e46565b50610cd930826001604051806020016040528060008152506113f8565b610ce3818361150c565b6040518060800160405280610cf783610819565b6001600160401b03168152602001336001600160a01b039081168252602080830187905260409283018890526000858152600b82528390208451815486840151909416600160401b026001600160e01b03199094166001600160401b0390911617929092178255838301516001830155606080850151805160028501908155818401516003860155948101516004850155908101518051939491939192610da6926005870192909101906120b8565b505050905050610db581610819565b6001600160401b03167f47895bb96af0707cde4587f6d0da3d75face640ba131dbf8cf4eb4b0298464168486604051610def929190612e63565b60405180910390a25050505050565b60095460ff1615610e225760405163bd291a9560e01b815260040160405180910390fd5b610e2c8282611569565b5050565b6000600a54821115610e555760405163ae9a63f560e01b815260040160405180910390fd5b505060095460ff1690565b6001600160401b0386166000908152600760205260408120546001600160a01b0316610edf5760405162461bcd60e51b815260206004820152602860248201527f76616c696461746f72206973206e6f742073657420666f7220746869732072656044820152671c5d595cdd081a5960c21b606482015260840161041c565b6001600160401b0387166000908152600660205260408120600401549003610f555760405162461bcd60e51b8152602060048201526024808201527f7175657279206973206e6f742073657420666f722074686973207265717565736044820152631d081a5960e21b606482015260840161041c565b610fb18787878080602002602001604051908101604052809392919081815260200183836020028082843760009201829052506001600160401b038e168152600760205260409020546001600160a01b03169250611574915050565b6001600160401b038716600090815260076020908152604080832054600690925291829020600490810154925163434661ef60e01b81526001600160a01b039092169263434661ef92611010928b928b928b928b928b92909101612e7c565b602060405180830381865afa15801561102d573d6000803e3d6000fd5b505050506040513d601f19601f820116820180604052508101906110519190612e46565b61109d5760405162461bcd60e51b815260206004820152601b60248201527f70726f6f6620726573706f6e7365206973206e6f742076616c69640000000000604482015260640161041c565b3360009081526005602090815260408083206001600160401b038b168452825291829020805460ff1916600117905581518782028181018301909352878152611123928a928a918a9182919085019084908082843760009201829052506001600160401b038e168152600760205260409020546001600160a01b0316925061166a915050565b5060019695505050505050565b6111696040518060c001604052806000815260200160008152602001600081526020016060815260200160008152602001606081525090565b6001600160401b038216600090815260066020908152604091829020825160c0810184528154815260018201548184015260028201548185015260038201805485518186028101860190965280865291949293606086019392908301828280156111f257602002820191906000526020600020905b8154815260200190600101908083116111de575b505050505081526020016004820154815260200160058201805461121590612ac4565b80601f016020809104026020016040519081016040528092919081815260200182805461124190612ac4565b801561128e5780601f106112635761010080835404028352916020019161128e565b820191906000526020600020905b81548152906001019060200180831161127157829003601f168201915b5050505050815250509050919050565b60095460ff16156112c25760405163bd291a9560e01b815260040160405180910390fd5b61058485858585856117fb565b60006001600160e01b03198216636cdb3d1360e11b148061130057506001600160e01b031982166303a24d0760e21b145b8061044857506301ffc9a760e01b6001600160e01b0319831614610448565b60606002805461132e90612ac4565b80601f016020809104026020016040519081016040528092919081815260200182805461135a90612ac4565b80156113a75780601f1061137c576101008083540402835291602001916113a7565b820191906000526020600020905b81548152906001019060200180831161138a57829003601f168201915b50505050509050919050565b6001600160a01b0385163314806113cf57506113cf8533610374565b6113eb5760405162461bcd60e51b815260040161041c90612edf565b6105848585858585611840565b6001600160a01b0384166114585760405162461bcd60e51b815260206004820152602160248201527f455243313135353a206d696e7420746f20746865207a65726f206164647265736044820152607360f81b606482015260840161041c565b33600061146485611a1d565b9050600061147185611a1d565b90506000868152602081815260408083206001600160a01b038b168452909152812080548792906114a3908490612de5565b909155505060408051878152602081018790526001600160a01b03808a1692600092918716917fc3d58168c5ae7397731d063d5bbf3d657854427343f4c083240f7aacaa2d0f62910160405180910390a461150383600089898989611a68565b50505050505050565b60008281526004602052604090206115248282612d26565b50817f6bb7ff708619ba0610cba295a58592e0451dee2622938c8755667688daf3529b61155084610473565b60405161155d91906121e8565b60405180910390a25050565b610e2c338383611bc3565b60006115f983836001600160a01b0316639f442afa6040518163ffffffff1660e01b8152600401602060405180830381865afa1580156115b8573d6000803e3d6000fd5b505050506040513d601f19601f820116820180604052508101906115dc9190612c10565b815181106115ec576115ec612b85565b6020026020010151611ca3565b9050336001600160a01b038216146116645760405162461bcd60e51b815260206004820152602860248201527f6164647265737320696e2070726f6f66206973206e6f7420612073656e646572604482015267206164647265737360c01b606482015260840161041c565b50505050565b600a5433906001600160401b038516908111156116d55760405162461bcd60e51b815260206004820152602360248201527f74686520676976656e207265717565737420696420646f6573206e6f742065786044820152621a5cdd60ea1b606482015260840161041c565b6001600160a01b03821660009081526005602090815260408083206001600160401b038916845290915290205460ff16156117645760405162461bcd60e51b815260206004820152602960248201527f70726f6f662063616e206e6f74206265207375626d6974746564206d6f7265206044820152687468616e206f6e636560b81b606482015260840161041c565b61178082826001604051806020016040528060008152506113f8565b6040516001600160a01b0383169082907f3bd96af6938a26c69f7495d25501517707ff4dbdeed3f615989247d2176aa2b690600090a360095460ff1615610584576040518181527f032bc66be43dbccb7487781d168eb7bda224628a3b2c3388bdf69b532a3a16119060200160405180910390a15050505050565b6001600160a01b03851633148061181757506118178533610374565b6118335760405162461bcd60e51b815260040161041c90612edf565b6105848585858585611e00565b81518351146118a25760405162461bcd60e51b815260206004820152602860248201527f455243313135353a2069647320616e6420616d6f756e7473206c656e677468206044820152670dad2e6dac2e8c6d60c31b606482015260840161041c565b6001600160a01b0384166118c85760405162461bcd60e51b815260040161041c90612f2d565b3360005b84518110156119af5760008582815181106118e9576118e9612b85565b60200260200101519050600085838151811061190757611907612b85565b602090810291909101810151600084815280835260408082206001600160a01b038e1683529093529190912054909150818110156119575760405162461bcd60e51b815260040161041c90612f72565b6000838152602081815260408083206001600160a01b038e8116855292528083208585039055908b16825281208054849290611994908490612de5565b92505081905550505050806119a890612bb1565b90506118cc565b50846001600160a01b0316866001600160a01b0316826001600160a01b03167f4a39dc06d4c0dbc64b70af90fd698a233a518aa5d07e595d983b8c0526c8f7fb87876040516119ff929190612fbc565b60405180910390a4611a15818787878787611f2a565b505050505050565b60408051600180825281830190925260609160009190602080830190803683370190505090508281600081518110611a5757611a57612b85565b602090810291909101015292915050565b6001600160a01b0384163b15611a155760405163f23a6e6160e01b81526001600160a01b0385169063f23a6e6190611aac9089908990889088908890600401612fe1565b6020604051808303816000875af1925050508015611ae7575060408051601f3d908101601f19168201909252611ae49181019061301b565b60015b611b9357611af3613038565b806308c379a003611b2c5750611b07613054565b80611b125750611b2e565b8060405162461bcd60e51b815260040161041c91906121e8565b505b60405162461bcd60e51b815260206004820152603460248201527f455243313135353a207472616e7366657220746f206e6f6e2d455243313135356044820152732932b1b2b4bb32b91034b6b83632b6b2b73a32b960611b606482015260840161041c565b6001600160e01b0319811663f23a6e6160e01b146115035760405162461bcd60e51b815260040161041c906130dd565b816001600160a01b0316836001600160a01b031603611c365760405162461bcd60e51b815260206004820152602960248201527f455243313135353a2073657474696e6720617070726f76616c20737461747573604482015268103337b91039b2b63360b91b606482015260840161041c565b6001600160a01b03838116600081815260016020908152604080832094871680845294825291829020805460ff191686151590811790915591519182527f17307eab39ab6107e8899845ad3d59bd9653f200f220920489ca2b5937696c31910160405180910390a3505050565b6000610448611df9611df48460008190506008817eff00ff00ff00ff00ff00ff00ff00ff00ff00ff00ff00ff00ff00ff00ff00ff16901b6008827fff00ff00ff00ff00ff00ff00ff00ff00ff00ff00ff00ff00ff00ff00ff00ff0016901c1790506010817dffff0000ffff0000ffff0000ffff0000ffff0000ffff0000ffff0000ffff16901b6010827fffff0000ffff0000ffff0000ffff0000ffff0000ffff0000ffff0000ffff000016901c1790506020817bffffffff00000000ffffffff00000000ffffffff00000000ffffffff16901b6020827fffffffff00000000ffffffff00000000ffffffff00000000ffffffff0000000016901c17905060408177ffffffffffffffff0000000000000000ffffffffffffffff16901b60408277ffffffffffffffff0000000000000000ffffffffffffffff1916901c179050608081901b608082901c179050919050565b611fe5565b6014015190565b6001600160a01b038416611e265760405162461bcd60e51b815260040161041c90612f2d565b336000611e3285611a1d565b90506000611e3f85611a1d565b90506000868152602081815260408083206001600160a01b038c16845290915290205485811015611e825760405162461bcd60e51b815260040161041c90612f72565b6000878152602081815260408083206001600160a01b038d8116855292528083208985039055908a16825281208054889290611ebf908490612de5565b909155505060408051888152602081018890526001600160a01b03808b16928c821692918816917fc3d58168c5ae7397731d063d5bbf3d657854427343f4c083240f7aacaa2d0f62910160405180910390a4611f1f848a8a8a8a8a611a68565b505050505050505050565b6001600160a01b0384163b15611a155760405163bc197c8160e01b81526001600160a01b0385169063bc197c8190611f6e9089908990889088908890600401613125565b6020604051808303816000875af1925050508015611fa9575060408051601f3d908101601f19168201909252611fa69181019061301b565b60015b611fb557611af3613038565b6001600160e01b0319811663bc197c8160e01b146115035760405162461bcd60e51b815260040161041c906130dd565b60408051602080825281830190925260609160208201818036833750505060208101929092525090565b604051806080016040528060006001600160401b0316815260200160006001600160a01b031681526020016000815260200161206c6040518060800160405280600081526020016000815260200160008152602001606081525090565b905290565b8280548282559060005260206000209081019282156120ac579160200282015b828111156120ac578235825591602001919060010190612091565b506108729291506120f3565b8280548282559060005260206000209081019282156120ac579160200282015b828111156120ac5782518255916020019190600101906120d8565b5b8082111561087257600081556001016120f4565b6001600160a01b038116811461211d57600080fd5b50565b6000806040838503121561213357600080fd5b823561213e81612108565b946020939093013593505050565b6001600160e01b03198116811461211d57600080fd5b60006020828403121561217457600080fd5b813561054c8161214c565b60006020828403121561219157600080fd5b5035919050565b60005b838110156121b357818101518382015260200161219b565b50506000910152565b600081518084526121d4816020860160208601612198565b601f01601f19169290920160200192915050565b60208152600061054c60208301846121bc565b634e487b7160e01b600052604160045260246000fd5b608081018181106001600160401b0382111715612230576122306121fb565b60405250565b601f8201601f191681016001600160401b038111828210171561225b5761225b6121fb565b6040525050565b60006001600160401b0382111561227b5761227b6121fb565b5060051b60200190565b600082601f83011261229657600080fd5b813560206122a382612262565b6040516122b08282612236565b83815260059390931b85018201928281019150868411156122d057600080fd5b8286015b848110156122eb57803583529183019183016122d4565b509695505050505050565b60006001600160401b0382111561230f5761230f6121fb565b50601f01601f191660200190565b600082601f83011261232e57600080fd5b8135612339816122f6565b6040516123468282612236565b82815285602084870101111561235b57600080fd5b82602086016020830137600092810160200192909252509392505050565b600080600080600060a0868803121561239157600080fd5b853561239c81612108565b945060208601356123ac81612108565b935060408601356001600160401b03808211156123c857600080fd5b6123d489838a01612285565b945060608801359150808211156123ea57600080fd5b6123f689838a01612285565b9350608088013591508082111561240c57600080fd5b506124198882890161231d565b9150509295509295909350565b6020808252825182820181905260009190848201906040850190845b818110156124675783516001600160401b031683529284019291840191600101612442565b50909695505050505050565b6000806040838503121561248657600080fd5b82356001600160401b038082111561249d57600080fd5b818501915085601f8301126124b157600080fd5b813560206124be82612262565b6040516124cb8282612236565b83815260059390931b85018201928281019150898411156124eb57600080fd5b948201945b8386101561251257853561250381612108565b825294820194908201906124f0565b9650508601359250508082111561252857600080fd5b5061253585828601612285565b9150509250929050565b600081518084526020808501945080840160005b8381101561256f57815187529582019590820190600101612553565b509495945050505050565b60208152600061054c602083018461253f565b80518252602081015160208301526040810151604083015260006060820151608060608501526125c0608085018261253f565b949350505050565b602081526001600160401b03825116602082015260018060a01b03602083015116604082015260408201516060820152600060608301516080808401526125c060a084018261258d565b80356001600160401b038116811461262957600080fd5b919050565b60006020828403121561264057600080fd5b61054c82612612565b85815284602082015283604082015282606082015260a06080820152600061267460a08301846121bc565b979650505050505050565b60008083601f84011261269157600080fd5b5081356001600160401b038111156126a857600080fd5b6020830191508360208260051b85010111156126c357600080fd5b9250929050565b600080600080600080600060c0888a0312156126e557600080fd5b6126ee88612612565b965060208801356126fe81612108565b955060408801359450606088013593506080880135925060a08801356001600160401b0381111561272e57600080fd5b61273a8a828b0161267f565b989b979a50959850939692959293505050565b60008060008060008060008060e0898b03121561276957600080fd5b61277289612612565b9750602089013561278281612108565b965060408901359550606089013594506080890135935060a08901356001600160401b038111156127b257600080fd5b6127be8b828c0161267f565b999c989b50969995989497949560c00135949350505050565b600080600080608085870312156127ed57600080fd5b84356127f881612108565b935060208501356001600160401b038082111561281457600080fd5b908601906080828903121561282857600080fd5b60405161283481612211565b82358152602083013560208201526040830135604082015260608301358281111561285e57600080fd5b61286a8a828601612285565b6060830152508095505060408701359350606087013591508082111561288f57600080fd5b5061289c8782880161231d565b91505092959194509250565b801515811461211d57600080fd5b600080604083850312156128c957600080fd5b82356128d481612108565b915060208301356128e4816128a8565b809150509250929050565b6000806040838503121561290257600080fd5b823561290d81612108565b915061291b60208401612612565b90509250929050565b806040810183101561044857600080fd5b600080600080600080610140878903121561294f57600080fd5b61295887612612565b955060208701356001600160401b0381111561297357600080fd5b61297f89828a0161267f565b909650945061299390508860408901612924565b92506101008701888111156129a757600080fd5b6080880192506129b78982612924565b9150509295509295509295565b602081528151602082015260208201516040820152604082015160608201526000606083015160c060808401526129fe60e084018261253f565b9050608084015160a084015260a0840151601f198483030160c0850152612a2582826121bc565b95945050505050565b60008060408385031215612a4157600080fd5b8235612a4c81612108565b915060208301356128e481612108565b600080600080600060a08688031215612a7457600080fd5b8535612a7f81612108565b94506020860135612a8f81612108565b9350604086013592506060860135915060808601356001600160401b03811115612ab857600080fd5b6124198882890161231d565b600181811c90821680612ad857607f821691505b602082108103612af857634e487b7160e01b600052602260045260246000fd5b50919050565b6000808454612b0c81612ac4565b60018281168015612b245760018114612b3957612b68565b60ff1984168752821515830287019450612b68565b8860005260208060002060005b85811015612b5f5781548a820152908401908201612b46565b50505082870194505b505050508351612b7c818360208801612198565b01949350505050565b634e487b7160e01b600052603260045260246000fd5b634e487b7160e01b600052601160045260246000fd5b600060018201612bc357612bc3612b9b565b5060010190565b81835260006001600160fb1b03831115612be357600080fd5b8260051b80836020870137939093016020019392505050565b6020815260006125c0602083018486612bca565b600060208284031215612c2257600080fd5b5051919050565b60c08101818360005b6006811015612c51578151835260209283019290910190600101612c32565b50505092915050565b600060208284031215612c6c57600080fd5b81516001600160401b03811115612c8257600080fd5b8201601f81018413612c9357600080fd5b8051612c9e816122f6565b604051612cab8282612236565b828152866020848601011115612cc057600080fd5b612cd1836020830160208701612198565b9695505050505050565b601f821115612d2157600081815260208120601f850160051c81016020861015612d025750805b601f850160051c820191505b81811015611a1557828155600101612d0e565b505050565b81516001600160401b03811115612d3f57612d3f6121fb565b612d5381612d4d8454612ac4565b84612cdb565b602080601f831160018114612d885760008415612d705750858301515b600019600386901b1c1916600185901b178555611a15565b600085815260208120601f198616915b82811015612db757888601518255948401946001909101908401612d98565b5085821015612dd55787850151600019600388901b60f8161c191681555b5050505050600190811b01905550565b8082018082111561044857610448612b9b565b6001600160401b038716815260018060a01b038616602082015284604082015283606082015282608082015260c060a08201526000612e3a60c083018461253f565b98975050505050505050565b600060208284031215612e5857600080fd5b815161054c816128a8565b8281526040602082015260006125c0604083018461258d565b6000610140808352612e91818401898b612bca565b915050604080876020850137606083018660005b6002811015612ec257838284379183019190830190600101612ea5565b505050808560e08501375082610120830152979650505050505050565b6020808252602e908201527f455243313135353a2063616c6c6572206973206e6f7420746f6b656e206f776e60408201526d195c881bdc88185c1c1c9bdd995960921b606082015260800190565b60208082526025908201527f455243313135353a207472616e7366657220746f20746865207a65726f206164604082015264647265737360d81b606082015260800190565b6020808252602a908201527f455243313135353a20696e73756666696369656e742062616c616e636520666f60408201526939103a3930b739b332b960b11b606082015260800190565b604081526000612fcf604083018561253f565b8281036020840152612a25818561253f565b6001600160a01b03868116825285166020820152604081018490526060810183905260a060808201819052600090612674908301846121bc565b60006020828403121561302d57600080fd5b815161054c8161214c565b600060033d11156130515760046000803e5060005160e01c5b90565b600060443d10156130625790565b6040516003193d81016004833e81513d6001600160401b03816024840111818411171561309157505050505090565b82850191508151818111156130a95750505050505090565b843d87010160208285010111156130c35750505050505090565b6130d260208286010187612236565b509095945050505050565b60208082526028908201527f455243313135353a204552433131353552656365697665722072656a656374656040820152676420746f6b656e7360c01b606082015260800190565b6001600160a01b0386811682528516602082015260a0604082018190526000906131519083018661253f565b8281036060840152613163818661253f565b90508281036080840152612e3a81856121bc56fea26469706673582212207068d87e54714eb3c1feedc53b6410d01f9d867a9dd67fc36fa7d9af8284a19b64736f6c63430008130033",
    "linkReferences": {}
  },
  "methodIdentifiers": {
    "balanceOf(address,uint256)": "00fdd58e",
    "balanceOfBatch(address[],uint256[])": "4e1273f4",
    "convertUint256ToUint64(uint256)": "825747cb",
    "getSupportedRequests()": "37ba9523",
    "getZKPRequest(uint64)": "c76d0845",
    "initBadge(address,(uint256,uint256,uint256,uint256[]),uint256,string)": "9fd4ecc7",
    "isApprovedForAll(address,address)": "e985e9c5",
    "locked(uint256)": "b45a3c0e",
    "proofs(address,uint64)": "b45c0fdf",
    "requestQueries(uint64)": "96bf4741",
    "requestValidators(uint64)": "a8723114",
    "safeBatchTransferFrom(address,address,uint256[],uint256[],bytes)": "2eb2c2d6",
    "safeTransferFrom(address,address,uint256,uint256,bytes)": "f242432a",
    "setApprovalForAll(address,bool)": "a22cb465",
    "setZKPRequest(uint64,address,uint256,uint256,uint256,uint256[])": "9abdc645",
    "setZKPRequestRaw(uint64,address,uint256,uint256,uint256,uint256[],uint256)": "9e621bcf",
    "submitZKPResponse(uint64,uint256[],uint256[2],uint256[2][2],uint256[2])": "b68967e2",
    "supportsInterface(bytes4)": "01ffc9a7",
    "tokenReptationData(uint256)": "76012526",
    "totalSupply()": "18160ddd",
    "uri(uint256)": "0e89341c"
  },
  "id": 11
}