{
  "abi": [
    {
      "inputs": [],
      "stateMutability": "nonpayable",
      "type": "constructor"
    },
    {
      "inputs": [],
      "name": "ErrLocked",
      "type": "error"
    },
    {
      "inputs": [],
      "name": "ErrNotFound",
      "type": "error"
    },
    {
      "anonymous": false,
      "inputs": [
        {
          "indexed": true,
          "internalType": "address",
          "name": "account",
          "type": "address"
        },
        {
          "indexed": true,
          "internalType": "address",
          "name": "operator",
          "type": "address"
        },
        {
          "indexed": false,
          "internalType": "bool",
          "name": "approved",
          "type": "bool"
        }
      ],
      "name": "ApprovalForAll",
      "type": "event"
    },
    {
      "anonymous": false,
      "inputs": [
        {
          "indexed": true,
          "internalType": "uint256",
          "name": "_tokenId",
          "type": "uint256"
        },
        {
          "indexed": false,
          "internalType": "uint256",
          "name": "_expireTimestamp",
          "type": "uint256"
        },
        {
          "components": [
            {
              "internalType": "uint256",
              "name": "schema",
              "type": "uint256"
            },
            {
              "internalType": "uint256",
              "name": "slotIndex",
              "type": "uint256"
            },
            {
              "internalType": "uint256",
              "name": "operator",
              "type": "uint256"
            },
            {
              "internalType": "uint256[]",
              "name": "value",
              "type": "uint256[]"
            },
            {
              "internalType": "string",
              "name": "circuitId",
              "type": "string"
            }
          ],
          "indexed": false,
          "internalType": "struct ICircuitValidator.CircuitQuery",
          "name": "_query",
          "type": "tuple"
        }
      ],
      "name": "InitBadge",
      "type": "event"
    },
    {
      "anonymous": false,
      "inputs": [
        {
          "indexed": false,
          "internalType": "uint256",
          "name": "tokenId",
          "type": "uint256"
        }
      ],
      "name": "Locked",
      "type": "event"
    },
    {
      "anonymous": false,
      "inputs": [
        {
          "indexed": true,
          "internalType": "uint256",
          "name": "_tokenId",
          "type": "uint256"
        },
        {
          "indexed": true,
          "internalType": "address",
          "name": "_to",
          "type": "address"
        }
      ],
      "name": "MintBadge",
      "type": "event"
    },
    {
      "anonymous": false,
      "inputs": [
        {
          "indexed": true,
          "internalType": "address",
          "name": "previousOwner",
          "type": "address"
        },
        {
          "indexed": true,
          "internalType": "address",
          "name": "newOwner",
          "type": "address"
        }
      ],
      "name": "OwnershipTransferred",
      "type": "event"
    },
    {
      "anonymous": false,
      "inputs": [
        {
          "indexed": true,
          "internalType": "address",
          "name": "operator",
          "type": "address"
        },
        {
          "indexed": true,
          "internalType": "address",
          "name": "from",
          "type": "address"
        },
        {
          "indexed": true,
          "internalType": "address",
          "name": "to",
          "type": "address"
        },
        {
          "indexed": false,
          "internalType": "uint256[]",
          "name": "ids",
          "type": "uint256[]"
        },
        {
          "indexed": false,
          "internalType": "uint256[]",
          "name": "values",
          "type": "uint256[]"
        }
      ],
      "name": "TransferBatch",
      "type": "event"
    },
    {
      "anonymous": false,
      "inputs": [
        {
          "indexed": true,
          "internalType": "address",
          "name": "operator",
          "type": "address"
        },
        {
          "indexed": true,
          "internalType": "address",
          "name": "from",
          "type": "address"
        },
        {
          "indexed": true,
          "internalType": "address",
          "name": "to",
          "type": "address"
        },
        {
          "indexed": false,
          "internalType": "uint256",
          "name": "id",
          "type": "uint256"
        },
        {
          "indexed": false,
          "internalType": "uint256",
          "name": "value",
          "type": "uint256"
        }
      ],
      "name": "TransferSingle",
      "type": "event"
    },
    {
      "anonymous": false,
      "inputs": [
        {
          "indexed": false,
          "internalType": "string",
          "name": "value",
          "type": "string"
        },
        {
          "indexed": true,
          "internalType": "uint256",
          "name": "id",
          "type": "uint256"
        }
      ],
      "name": "URI",
      "type": "event"
    },
    {
      "anonymous": false,
      "inputs": [
        {
          "indexed": false,
          "internalType": "uint256",
          "name": "tokenId",
          "type": "uint256"
        }
      ],
      "name": "Unlocked",
      "type": "event"
    },
    {
      "inputs": [
        {
          "internalType": "address",
          "name": "account",
          "type": "address"
        },
        {
          "internalType": "uint256",
          "name": "id",
          "type": "uint256"
        }
      ],
      "name": "balanceOf",
      "outputs": [
        {
          "internalType": "uint256",
          "name": "",
          "type": "uint256"
        }
      ],
      "stateMutability": "view",
      "type": "function"
    },
    {
      "inputs": [
        {
          "internalType": "address[]",
          "name": "accounts",
          "type": "address[]"
        },
        {
          "internalType": "uint256[]",
          "name": "ids",
          "type": "uint256[]"
        }
      ],
      "name": "balanceOfBatch",
      "outputs": [
        {
          "internalType": "uint256[]",
          "name": "",
          "type": "uint256[]"
        }
      ],
      "stateMutability": "view",
      "type": "function"
    },
    {
      "inputs": [
        {
          "internalType": "uint256",
          "name": "value",
          "type": "uint256"
        }
      ],
      "name": "convertUint256ToUint64",
      "outputs": [
        {
          "internalType": "uint64",
          "name": "",
          "type": "uint64"
        }
      ],
      "stateMutability": "pure",
      "type": "function"
    },
    {
      "inputs": [],
      "name": "getSupportedRequests",
      "outputs": [
        {
          "internalType": "uint64[]",
          "name": "arr",
          "type": "uint64[]"
        }
      ],
      "stateMutability": "view",
      "type": "function"
    },
    {
      "inputs": [
        {
          "internalType": "uint64",
          "name": "requestId",
          "type": "uint64"
        }
      ],
      "name": "getZKPRequest",
      "outputs": [
        {
          "components": [
            {
              "internalType": "uint256",
              "name": "schema",
              "type": "uint256"
            },
            {
              "internalType": "uint256",
              "name": "slotIndex",
              "type": "uint256"
            },
            {
              "internalType": "uint256",
              "name": "operator",
              "type": "uint256"
            },
            {
              "internalType": "uint256[]",
              "name": "value",
              "type": "uint256[]"
            },
            {
              "internalType": "string",
              "name": "circuitId",
              "type": "string"
            }
          ],
          "internalType": "struct ICircuitValidator.CircuitQuery",
          "name": "",
          "type": "tuple"
        }
      ],
      "stateMutability": "view",
      "type": "function"
    },
    {
      "inputs": [
        {
          "internalType": "contract ICircuitValidator",
          "name": "_validator",
          "type": "address"
        },
        {
          "components": [
            {
              "internalType": "uint256",
              "name": "schema",
              "type": "uint256"
            },
            {
              "internalType": "uint256",
              "name": "slotIndex",
              "type": "uint256"
            },
            {
              "internalType": "uint256",
              "name": "operator",
              "type": "uint256"
            },
            {
              "internalType": "uint256[]",
              "name": "value",
              "type": "uint256[]"
            },
            {
              "internalType": "string",
              "name": "circuitId",
              "type": "string"
            }
          ],
          "internalType": "struct ICircuitValidator.CircuitQuery",
          "name": "_query",
          "type": "tuple"
        },
        {
          "internalType": "uint256",
          "name": "_expireTimestamp",
          "type": "uint256"
        },
        {
          "internalType": "string",
          "name": "_tokenURI",
          "type": "string"
        }
      ],
      "name": "initBadge",
      "outputs": [],
      "stateMutability": "nonpayable",
      "type": "function"
    },
    {
      "inputs": [
        {
          "internalType": "address",
          "name": "account",
          "type": "address"
        },
        {
          "internalType": "address",
          "name": "operator",
          "type": "address"
        }
      ],
      "name": "isApprovedForAll",
      "outputs": [
        {
          "internalType": "bool",
          "name": "",
          "type": "bool"
        }
      ],
      "stateMutability": "view",
      "type": "function"
    },
    {
      "inputs": [
        {
          "internalType": "uint256",
          "name": "tokenId",
          "type": "uint256"
        }
      ],
      "name": "locked",
      "outputs": [
        {
          "internalType": "bool",
          "name": "",
          "type": "bool"
        }
      ],
      "stateMutability": "view",
      "type": "function"
    },
    {
      "inputs": [],
      "name": "owner",
      "outputs": [
        {
          "internalType": "address",
          "name": "",
          "type": "address"
        }
      ],
      "stateMutability": "view",
      "type": "function"
    },
    {
      "inputs": [
        {
          "internalType": "address",
          "name": "",
          "type": "address"
        },
        {
          "internalType": "uint64",
          "name": "",
          "type": "uint64"
        }
      ],
      "name": "proofs",
      "outputs": [
        {
          "internalType": "bool",
          "name": "",
          "type": "bool"
        }
      ],
      "stateMutability": "view",
      "type": "function"
    },
    {
      "inputs": [],
      "name": "renounceOwnership",
      "outputs": [],
      "stateMutability": "nonpayable",
      "type": "function"
    },
    {
      "inputs": [
        {
          "internalType": "uint64",
          "name": "",
          "type": "uint64"
        }
      ],
      "name": "requestExist",
      "outputs": [
        {
          "internalType": "bool",
          "name": "",
          "type": "bool"
        }
      ],
      "stateMutability": "view",
      "type": "function"
    },
    {
      "inputs": [
        {
          "internalType": "uint64",
          "name": "",
          "type": "uint64"
        }
      ],
      "name": "requestQueries",
      "outputs": [
        {
          "internalType": "uint256",
          "name": "schema",
          "type": "uint256"
        },
        {
          "internalType": "uint256",
          "name": "slotIndex",
          "type": "uint256"
        },
        {
          "internalType": "uint256",
          "name": "operator",
          "type": "uint256"
        },
        {
          "internalType": "string",
          "name": "circuitId",
          "type": "string"
        }
      ],
      "stateMutability": "view",
      "type": "function"
    },
    {
      "inputs": [
        {
          "internalType": "uint64",
          "name": "",
          "type": "uint64"
        }
      ],
      "name": "requestValidators",
      "outputs": [
        {
          "internalType": "contract ICircuitValidator",
          "name": "",
          "type": "address"
        }
      ],
      "stateMutability": "view",
      "type": "function"
    },
    {
      "inputs": [
        {
          "internalType": "address",
          "name": "from",
          "type": "address"
        },
        {
          "internalType": "address",
          "name": "to",
          "type": "address"
        },
        {
          "internalType": "uint256[]",
          "name": "ids",
          "type": "uint256[]"
        },
        {
          "internalType": "uint256[]",
          "name": "amounts",
          "type": "uint256[]"
        },
        {
          "internalType": "bytes",
          "name": "data",
          "type": "bytes"
        }
      ],
      "name": "safeBatchTransferFrom",
      "outputs": [],
      "stateMutability": "nonpayable",
      "type": "function"
    },
    {
      "inputs": [
        {
          "internalType": "address",
          "name": "from",
          "type": "address"
        },
        {
          "internalType": "address",
          "name": "to",
          "type": "address"
        },
        {
          "internalType": "uint256",
          "name": "tokenId",
          "type": "uint256"
        },
        {
          "internalType": "uint256",
          "name": "amount",
          "type": "uint256"
        },
        {
          "internalType": "bytes",
          "name": "data",
          "type": "bytes"
        }
      ],
      "name": "safeTransferFrom",
      "outputs": [],
      "stateMutability": "nonpayable",
      "type": "function"
    },
    {
      "inputs": [
        {
          "internalType": "address",
          "name": "operator",
          "type": "address"
        },
        {
          "internalType": "bool",
          "name": "approved",
          "type": "bool"
        }
      ],
      "name": "setApprovalForAll",
      "outputs": [],
      "stateMutability": "nonpayable",
      "type": "function"
    },
    {
      "inputs": [
        {
          "internalType": "uint64",
          "name": "requestId",
          "type": "uint64"
        },
        {
          "internalType": "contract ICircuitValidator",
          "name": "validator",
          "type": "address"
        },
        {
          "components": [
            {
              "internalType": "uint256",
              "name": "schema",
              "type": "uint256"
            },
            {
              "internalType": "uint256",
              "name": "slotIndex",
              "type": "uint256"
            },
            {
              "internalType": "uint256",
              "name": "operator",
              "type": "uint256"
            },
            {
              "internalType": "uint256[]",
              "name": "value",
              "type": "uint256[]"
            },
            {
              "internalType": "string",
              "name": "circuitId",
              "type": "string"
            }
          ],
          "internalType": "struct ICircuitValidator.CircuitQuery",
          "name": "query",
          "type": "tuple"
        }
      ],
      "name": "setZKPRequest",
      "outputs": [
        {
          "internalType": "bool",
          "name": "",
          "type": "bool"
        }
      ],
      "stateMutability": "nonpayable",
      "type": "function"
    },
    {
      "inputs": [
        {
          "internalType": "uint64",
          "name": "requestId",
          "type": "uint64"
        },
        {
          "internalType": "uint256[]",
          "name": "inputs",
          "type": "uint256[]"
        },
        {
          "internalType": "uint256[2]",
          "name": "a",
          "type": "uint256[2]"
        },
        {
          "internalType": "uint256[2][2]",
          "name": "b",
          "type": "uint256[2][2]"
        },
        {
          "internalType": "uint256[2]",
          "name": "c",
          "type": "uint256[2]"
        }
      ],
      "name": "submitZKPResponse",
      "outputs": [
        {
          "internalType": "bool",
          "name": "",
          "type": "bool"
        }
      ],
      "stateMutability": "nonpayable",
      "type": "function"
    },
    {
      "inputs": [
        {
          "internalType": "uint256",
          "name": "",
          "type": "uint256"
        }
      ],
      "name": "supportedRequests",
      "outputs": [
        {
          "internalType": "uint64",
          "name": "",
          "type": "uint64"
        }
      ],
      "stateMutability": "view",
      "type": "function"
    },
    {
      "inputs": [
        {
          "internalType": "bytes4",
          "name": "interfaceId",
          "type": "bytes4"
        }
      ],
      "name": "supportsInterface",
      "outputs": [
        {
          "internalType": "bool",
          "name": "",
          "type": "bool"
        }
      ],
      "stateMutability": "view",
      "type": "function"
    },
    {
      "inputs": [
        {
          "internalType": "uint256",
          "name": "id",
          "type": "uint256"
        }
      ],
      "name": "tokenReptationData",
      "outputs": [
        {
          "components": [
            {
              "internalType": "uint64",
              "name": "requestId",
              "type": "uint64"
            },
            {
              "internalType": "address",
              "name": "issuer",
              "type": "address"
            },
            {
              "internalType": "uint256",
              "name": "expireTimestamp",
              "type": "uint256"
            },
            {
              "components": [
                {
                  "internalType": "uint256",
                  "name": "schema",
                  "type": "uint256"
                },
                {
                  "internalType": "uint256",
                  "name": "slotIndex",
                  "type": "uint256"
                },
                {
                  "internalType": "uint256",
                  "name": "operator",
                  "type": "uint256"
                },
                {
                  "internalType": "uint256[]",
                  "name": "value",
                  "type": "uint256[]"
                },
                {
                  "internalType": "string",
                  "name": "circuitId",
                  "type": "string"
                }
              ],
              "internalType": "struct ICircuitValidator.CircuitQuery",
              "name": "query",
              "type": "tuple"
            }
          ],
          "internalType": "struct ZKBadge.Reptation",
          "name": "reptation",
          "type": "tuple"
        }
      ],
      "stateMutability": "view",
      "type": "function"
    },
    {
      "inputs": [],
      "name": "totalSupply",
      "outputs": [
        {
          "internalType": "uint256",
          "name": "",
          "type": "uint256"
        }
      ],
      "stateMutability": "view",
      "type": "function"
    },
    {
      "inputs": [
        {
          "internalType": "address",
          "name": "newOwner",
          "type": "address"
        }
      ],
      "name": "transferOwnership",
      "outputs": [],
      "stateMutability": "nonpayable",
      "type": "function"
    },
    {
      "inputs": [
        {
          "internalType": "uint256",
          "name": "tokenId",
          "type": "uint256"
        }
      ],
      "name": "uri",
      "outputs": [
        {
          "internalType": "string",
          "name": "",
          "type": "string"
        }
      ],
      "stateMutability": "view",
      "type": "function"
    }
  ],
  "bytecode": {
    "object": "0x60a0604052600060809081526003906200001a90826200016b565b50600b805460ff191660011790553480156200003557600080fd5b50604080516020810190915260008152620000508162000062565b506200005c3362000074565b62000237565b60026200007082826200016b565b5050565b600580546001600160a01b038381166001600160a01b0319831681179093556040519116919082907f8be0079c531659141344cd1fd0a4f28419497f9722a3daafe3b4186f6b6457e090600090a35050565b634e487b7160e01b600052604160045260246000fd5b600181811c90821680620000f157607f821691505b6020821081036200011257634e487b7160e01b600052602260045260246000fd5b50919050565b601f8211156200016657600081815260208120601f850160051c81016020861015620001415750805b601f850160051c820191505b8181101562000162578281556001016200014d565b5050505b505050565b81516001600160401b03811115620001875762000187620000c6565b6200019f81620001988454620000dc565b8462000118565b602080601f831160018114620001d75760008415620001be5750858301515b600019600386901b1c1916600185901b17855562000162565b600085815260208120601f198616915b828110156200020857888601518255948401946001909101908401620001e7565b5085821015620002275787850151600019600388901b60f8161c191681555b5050505050600190811b01905550565b6131f380620002476000396000f3fe608060405234801561001057600080fd5b50600436106101725760003560e01c8063a22cb465116100de578063c76d084511610097578063f242432a11610071578063f242432a146103ef578063f2fde38b14610402578063fe1ea8ed14610415578063fee207e61461042857600080fd5b8063c76d084514610380578063e985e9c5146103a0578063f1435326146103dc57600080fd5b8063a22cb465146102cd578063a5a40e16146102e0578063a872311414610303578063b45a3c0e1461032c578063b45c0fdf1461033f578063b68967e21461036d57600080fd5b80634e1273f4116101305780634e1273f414610212578063715018a614610232578063760125261461023a578063825747cb1461025a5780638da5cb5b1461028557806396bf4741146102aa57600080fd5b8062fdd58e1461017757806301ffc9a71461019d5780630e89341c146101c057806318160ddd146101e05780632eb2c2d6146101e857806337ba9523146101fd575b600080fd5b61018a61018536600461218a565b61043b565b6040519081526020015b60405180910390f35b6101b06101ab3660046121cc565b6104d4565b6040519015158152602001610194565b6101d36101ce3660046121e9565b6104f9565b6040516101949190612252565b600c5461018a565b6101fb6101f63660046123d3565b6105d9565b005b610205610611565b6040516101949190612480565b6102256102203660046124cd565b61069b565b60405161019491906125d4565b6101fb6107c4565b61024d6102483660046121e9565b6107d8565b604051610194919061263c565b61026d6102683660046121e9565b610945565b6040516001600160401b039091168152602001610194565b6005546001600160a01b03165b6040516001600160a01b039091168152602001610194565b6102bd6102b83660046126aa565b6109a2565b60405161019494939291906126c5565b6101fb6102db366004612702565b610a55565b6101b06102ee3660046126aa565b60096020526000908152604090205460ff1681565b6102926103113660046126aa565b6008602052600090815260409020546001600160a01b031681565b6101b061033a3660046121e9565b610a87565b6101b061034d36600461273b565b600660209081526000928352604080842090915290825290205460ff1681565b6101b061037b3660046127c4565b610ab7565b61039361038e3660046126aa565b610d15565b6040516101949190612891565b6101b06103ae3660046128a4565b6001600160a01b03918216600090815260016020908152604080832093909416825291909152205460ff1690565b61026d6103ea3660046121e9565b610e72565b6101fb6103fd3660046128d2565b610eaf565b6101fb61041036600461293a565b610ee0565b6101fb6104233660046129fe565b610f59565b6101b0610436366004612a7d565b611135565b60006001600160a01b0383166104ab5760405162461bcd60e51b815260206004820152602a60248201527f455243313135353a2061646472657373207a65726f206973206e6f742061207660448201526930b634b21037bbb732b960b11b60648201526084015b60405180910390fd5b506000818152602081815260408083206001600160a01b03861684529091529020545b92915050565b60006001600160e01b03198216635a2d1e0760e11b14806104ce57506104ce826112c9565b60008181526004602052604081208054606092919061051790612adc565b80601f016020809104026020016040519081016040528092919081815260200182805461054390612adc565b80156105905780601f1061056557610100808354040283529160200191610590565b820191906000526020600020905b81548152906001019060200180831161057357829003601f168201915b5050505050905060008151116105ae576105a983611319565b6105d2565b6003816040516020016105c2929190612b16565b6040516020818303038152906040525b9392505050565b600b5460ff16156105fd5760405163bd291a9560e01b815260040160405180910390fd5b61060a85858585856113ad565b5050505050565b6060600a80548060200260200160405190810160405280929190818152602001828054801561069157602002820191906000526020600020906000905b82829054906101000a90046001600160401b03166001600160401b03168152602001906008019060208260070104928301926001038202915080841161064e5790505b5050505050905090565b606081518351146107005760405162461bcd60e51b815260206004820152602960248201527f455243313135353a206163636f756e747320616e6420696473206c656e677468604482015268040dad2e6dac2e8c6d60bb1b60648201526084016104a2565b600083516001600160401b0381111561071b5761071b612265565b604051908082528060200260200182016040528015610744578160200160208202803683370190505b50905060005b84518110156107bc5761078f85828151811061076857610768612b9d565b602002602001015185838151811061078257610782612b9d565b602002602001015161043b565b8282815181106107a1576107a1612b9d565b60209081029190910101526107b581612bc9565b905061074a565b509392505050565b6107cc6113f2565b6107d6600061144c565b565b6107e06120b5565b6000828152600d6020908152604091829020825160808101845281546001600160401b0381168252600160401b90046001600160a01b031681840152600182015481850152835160a08101855260028301805482526003840154828601526004840154828701526005840180548751818802810188019098528088529396949560608089019694959394908601939092918301828280156108a057602002820191906000526020600020905b81548152602001906001019080831161088c575b505050505081526020016004820180546108b990612adc565b80601f01602080910402602001604051908101604052809291908181526020018280546108e590612adc565b80156109325780601f1061090757610100808354040283529160200191610932565b820191906000526020600020905b81548152906001019060200180831161091557829003601f168201915b5050509190925250505090525092915050565b60006001600160401b0382111561099e5760405162461bcd60e51b815260206004820181905260248201527f56616c756520746f6f206c6172676520746f2066697420696e2075696e74363460448201526064016104a2565b5090565b6007602052600090815260409020805460018201546002830154600484018054939492939192916109d290612adc565b80601f01602080910402602001604051908101604052809291908181526020018280546109fe90612adc565b8015610a4b5780601f10610a2057610100808354040283529160200191610a4b565b820191906000526020600020905b815481529060010190602001808311610a2e57829003601f168201915b5050505050905084565b600b5460ff1615610a795760405163bd291a9560e01b815260040160405180910390fd5b610a83828261149e565b5050565b6000600c54821115610aac5760405163ae9a63f560e01b815260040160405180910390fd5b5050600b5460ff1690565b6001600160401b0385166000908152600860205260408120546001600160a01b0316610b365760405162461bcd60e51b815260206004820152602860248201527f76616c696461746f72206973206e6f742073657420666f7220746869732072656044820152671c5d595cdd081a5960c21b60648201526084016104a2565b6001600160401b0386166000908152600760205260408120549003610ba95760405162461bcd60e51b8152602060048201526024808201527f7175657279206973206e6f742073657420666f722074686973207265717565736044820152631d081a5960e21b60648201526084016104a2565b6001600160401b038616600090815260086020526040902054610bd890879087906001600160a01b03166114a9565b6001600160401b03861660009081526008602090815260408083205460079092529182902091516319f8754160e21b81526001600160a01b03909116916367e1d50491610c3091899189918991899190600401612c82565b602060405180830381865afa158015610c4d573d6000803e3d6000fd5b505050506040513d601f19601f82011682018060405250810190610c719190612d6f565b610cbd5760405162461bcd60e51b815260206004820152601b60248201527f70726f6f6620726573706f6e7365206973206e6f742076616c6964000000000060448201526064016104a2565b3360009081526006602090815260408083206001600160401b038a1684528252808320805460ff191660011790556008909152902054610d0990879087906001600160a01b031661159f565b50600195945050505050565b610d476040518060a0016040528060008152602001600081526020016000815260200160608152602001606081525090565b6001600160401b038216600090815260076020908152604091829020825160a081018452815481526001820154818401526002820154818501526003820180548551818602810186019096528086529194929360608601939290830182828015610dd057602002820191906000526020600020905b815481526020019060010190808311610dbc575b50505050508152602001600482018054610de990612adc565b80601f0160208091040260200160405190810160405280929190818152602001828054610e1590612adc565b8015610e625780601f10610e3757610100808354040283529160200191610e62565b820191906000526020600020905b815481529060010190602001808311610e4557829003601f168201915b5050505050815250509050919050565b600a8181548110610e8257600080fd5b9060005260206000209060049182820401919006600802915054906101000a90046001600160401b031681565b600b5460ff1615610ed35760405163bd291a9560e01b815260040160405180910390fd5b61060a8585858585611730565b610ee86113f2565b6001600160a01b038116610f4d5760405162461bcd60e51b815260206004820152602660248201527f4f776e61626c653a206e6577206f776e657220697320746865207a65726f206160448201526564647265737360d01b60648201526084016104a2565b610f568161144c565b50565b6000600c546001610f6a9190612d8c565b90503063fee207e6610f7b83610945565b87876040518463ffffffff1660e01b8152600401610f9b93929190612d9f565b6020604051808303816000875af1158015610fba573d6000803e3d6000fd5b505050506040513d601f19601f82011682018060405250810190610fde9190612d6f565b50610ffb3082600160405180602001604052806000815250611775565b6110058183611889565b604051806080016040528061101983610945565b6001600160401b03168152602001336001600160a01b039081168252602080830187905260409283018890526000858152600d82528390208451815486840151909416600160401b026001600160e01b03199094166001600160401b03909116179290921782558383015160018301556060808501518051600285019081558184015160038601559481015160048501559081015180519394919391926110c89260058701929091019061211e565b50608082015160048201906110dd9082612e1d565b5050509050506110ec81610945565b6001600160401b03167f107a25ab6a1875140ef0e9fa07a7eedd55dd4a14047da808ad938cf2d12b22d18486604051611126929190612edc565b60405180910390a25050505050565b600061113f6113f2565b6001600160401b0384166000908152600860205260409020546001600160a01b03166111d957600a80546001818101909255600481047fc65a7bb8d6351c1cf70c95a316cc6a92839c986682d98bc35f958f4883f9d2a80180546001600160401b0380891660086003909516949094026101000a8481029102199091161790556000908152600960205260409020805460ff191690911790555b60608201516001600160401b0385166000908152600760209081526040909120825161120e936003909201929091019061211e565b506040808301516001600160401b03861660009081526007602052919091206002810191909155608083015160049091019061124a9082612e1d565b506020808301516001600160401b038616600090815260079092526040909120600181019190915582518155608083015160049091019061128b9082612e1d565b50506001600160401b038316600090815260086020526040902080546001600160a01b0384166001600160a01b031990911617905560019392505050565b60006001600160e01b03198216636cdb3d1360e11b14806112fa57506001600160e01b031982166303a24d0760e21b145b806104ce57506301ffc9a760e01b6001600160e01b03198316146104ce565b60606002805461132890612adc565b80601f016020809104026020016040519081016040528092919081815260200182805461135490612adc565b80156113a15780601f10611376576101008083540402835291602001916113a1565b820191906000526020600020905b81548152906001019060200180831161138457829003601f168201915b50505050509050919050565b6001600160a01b0385163314806113c957506113c985336103ae565b6113e55760405162461bcd60e51b81526004016104a290612ef5565b61060a85858585856118e6565b6005546001600160a01b031633146107d65760405162461bcd60e51b815260206004820181905260248201527f4f776e61626c653a2063616c6c6572206973206e6f7420746865206f776e657260448201526064016104a2565b600580546001600160a01b038381166001600160a01b0319831681179093556040519116919082907f8be0079c531659141344cd1fd0a4f28419497f9722a3daafe3b4186f6b6457e090600090a35050565b610a83338383611ac3565b600061152e83836001600160a01b0316639f442afa6040518163ffffffff1660e01b8152600401602060405180830381865afa1580156114ed573d6000803e3d6000fd5b505050506040513d601f19601f820116820180604052508101906115119190612f43565b8151811061152157611521612b9d565b6020026020010151611ba3565b9050336001600160a01b038216146115995760405162461bcd60e51b815260206004820152602860248201527f6164647265737320696e2070726f6f66206973206e6f7420612073656e646572604482015267206164647265737360c01b60648201526084016104a2565b50505050565b600c5433906001600160401b0385169081111561160a5760405162461bcd60e51b815260206004820152602360248201527f74686520676976656e207265717565737420696420646f6573206e6f742065786044820152621a5cdd60ea1b60648201526084016104a2565b6001600160a01b03821660009081526006602090815260408083206001600160401b038916845290915290205460ff16156116995760405162461bcd60e51b815260206004820152602960248201527f70726f6f662063616e206e6f74206265207375626d6974746564206d6f7265206044820152687468616e206f6e636560b81b60648201526084016104a2565b6116b58282600160405180602001604052806000815250611775565b6040516001600160a01b0383169082907f3bd96af6938a26c69f7495d25501517707ff4dbdeed3f615989247d2176aa2b690600090a3600b5460ff161561060a576040518181527f032bc66be43dbccb7487781d168eb7bda224628a3b2c3388bdf69b532a3a16119060200160405180910390a15050505050565b6001600160a01b03851633148061174c575061174c85336103ae565b6117685760405162461bcd60e51b81526004016104a290612ef5565b61060a8585858585611d00565b6001600160a01b0384166117d55760405162461bcd60e51b815260206004820152602160248201527f455243313135353a206d696e7420746f20746865207a65726f206164647265736044820152607360f81b60648201526084016104a2565b3360006117e185611e2a565b905060006117ee85611e2a565b90506000868152602081815260408083206001600160a01b038b16845290915281208054879290611820908490612d8c565b909155505060408051878152602081018790526001600160a01b03808a1692600092918716917fc3d58168c5ae7397731d063d5bbf3d657854427343f4c083240f7aacaa2d0f62910160405180910390a461188083600089898989611e75565b50505050505050565b60008281526004602052604090206118a18282612e1d565b50817f6bb7ff708619ba0610cba295a58592e0451dee2622938c8755667688daf3529b6118cd846104f9565b6040516118da9190612252565b60405180910390a25050565b81518351146119485760405162461bcd60e51b815260206004820152602860248201527f455243313135353a2069647320616e6420616d6f756e7473206c656e677468206044820152670dad2e6dac2e8c6d60c31b60648201526084016104a2565b6001600160a01b03841661196e5760405162461bcd60e51b81526004016104a290612f5c565b3360005b8451811015611a5557600085828151811061198f5761198f612b9d565b6020026020010151905060008583815181106119ad576119ad612b9d565b602090810291909101810151600084815280835260408082206001600160a01b038e1683529093529190912054909150818110156119fd5760405162461bcd60e51b81526004016104a290612fa1565b6000838152602081815260408083206001600160a01b038e8116855292528083208585039055908b16825281208054849290611a3a908490612d8c565b9250508190555050505080611a4e90612bc9565b9050611972565b50846001600160a01b0316866001600160a01b0316826001600160a01b03167f4a39dc06d4c0dbc64b70af90fd698a233a518aa5d07e595d983b8c0526c8f7fb8787604051611aa5929190612feb565b60405180910390a4611abb818787878787611fd0565b505050505050565b816001600160a01b0316836001600160a01b031603611b365760405162461bcd60e51b815260206004820152602960248201527f455243313135353a2073657474696e6720617070726f76616c20737461747573604482015268103337b91039b2b63360b91b60648201526084016104a2565b6001600160a01b03838116600081815260016020908152604080832094871680845294825291829020805460ff191686151590811790915591519182527f17307eab39ab6107e8899845ad3d59bd9653f200f220920489ca2b5937696c31910160405180910390a3505050565b60006104ce611cf9611cf48460008190506008817eff00ff00ff00ff00ff00ff00ff00ff00ff00ff00ff00ff00ff00ff00ff00ff16901b6008827fff00ff00ff00ff00ff00ff00ff00ff00ff00ff00ff00ff00ff00ff00ff00ff0016901c1790506010817dffff0000ffff0000ffff0000ffff0000ffff0000ffff0000ffff0000ffff16901b6010827fffff0000ffff0000ffff0000ffff0000ffff0000ffff0000ffff0000ffff000016901c1790506020817bffffffff00000000ffffffff00000000ffffffff00000000ffffffff16901b6020827fffffffff00000000ffffffff00000000ffffffff00000000ffffffff0000000016901c17905060408177ffffffffffffffff0000000000000000ffffffffffffffff16901b60408277ffffffffffffffff0000000000000000ffffffffffffffff1916901c179050608081901b608082901c179050919050565b61208b565b6014015190565b6001600160a01b038416611d265760405162461bcd60e51b81526004016104a290612f5c565b336000611d3285611e2a565b90506000611d3f85611e2a565b90506000868152602081815260408083206001600160a01b038c16845290915290205485811015611d825760405162461bcd60e51b81526004016104a290612fa1565b6000878152602081815260408083206001600160a01b038d8116855292528083208985039055908a16825281208054889290611dbf908490612d8c565b909155505060408051888152602081018890526001600160a01b03808b16928c821692918816917fc3d58168c5ae7397731d063d5bbf3d657854427343f4c083240f7aacaa2d0f62910160405180910390a4611e1f848a8a8a8a8a611e75565b505050505050505050565b60408051600180825281830190925260609160009190602080830190803683370190505090508281600081518110611e6457611e64612b9d565b602090810291909101015292915050565b6001600160a01b0384163b15611abb5760405163f23a6e6160e01b81526001600160a01b0385169063f23a6e6190611eb99089908990889088908890600401613010565b6020604051808303816000875af1925050508015611ef4575060408051601f3d908101601f19168201909252611ef191810190613055565b60015b611fa057611f00613072565b806308c379a003611f395750611f1461308e565b80611f1f5750611f3b565b8060405162461bcd60e51b81526004016104a29190612252565b505b60405162461bcd60e51b815260206004820152603460248201527f455243313135353a207472616e7366657220746f206e6f6e2d455243313135356044820152732932b1b2b4bb32b91034b6b83632b6b2b73a32b960611b60648201526084016104a2565b6001600160e01b0319811663f23a6e6160e01b146118805760405162461bcd60e51b81526004016104a290613117565b6001600160a01b0384163b15611abb5760405163bc197c8160e01b81526001600160a01b0385169063bc197c8190612014908990899088908890889060040161315f565b6020604051808303816000875af192505050801561204f575060408051601f3d908101601f1916820190925261204c91810190613055565b60015b61205b57611f00613072565b6001600160e01b0319811663bc197c8160e01b146118805760405162461bcd60e51b81526004016104a290613117565b60408051602080825281830190925260609160208201818036833750505060208101929092525090565b604051806080016040528060006001600160401b0316815260200160006001600160a01b03168152602001600081526020016121196040518060a0016040528060008152602001600081526020016000815260200160608152602001606081525090565b905290565b828054828255906000526020600020908101928215612159579160200282015b8281111561215957825182559160200191906001019061213e565b5061099e9291505b8082111561099e5760008155600101612161565b6001600160a01b0381168114610f5657600080fd5b6000806040838503121561219d57600080fd5b82356121a881612175565b946020939093013593505050565b6001600160e01b031981168114610f5657600080fd5b6000602082840312156121de57600080fd5b81356105d2816121b6565b6000602082840312156121fb57600080fd5b5035919050565b60005b8381101561221d578181015183820152602001612205565b50506000910152565b6000815180845261223e816020860160208601612202565b601f01601f19169290920160200192915050565b6020815260006105d26020830184612226565b634e487b7160e01b600052604160045260246000fd5b604081018181106001600160401b038211171561229a5761229a612265565b60405250565b601f8201601f191681016001600160401b03811182821017156122c5576122c5612265565b6040525050565b60006001600160401b038211156122e5576122e5612265565b5060051b60200190565b600082601f83011261230057600080fd5b8135602061230d826122cc565b60405161231a82826122a0565b83815260059390931b850182019282810191508684111561233a57600080fd5b8286015b84811015612355578035835291830191830161233e565b509695505050505050565b600082601f83011261237157600080fd5b81356001600160401b0381111561238a5761238a612265565b6040516123a1601f8301601f1916602001826122a0565b8181528460208386010111156123b657600080fd5b816020850160208301376000918101602001919091529392505050565b600080600080600060a086880312156123eb57600080fd5b85356123f681612175565b9450602086013561240681612175565b935060408601356001600160401b038082111561242257600080fd5b61242e89838a016122ef565b9450606088013591508082111561244457600080fd5b61245089838a016122ef565b9350608088013591508082111561246657600080fd5b5061247388828901612360565b9150509295509295909350565b6020808252825182820181905260009190848201906040850190845b818110156124c15783516001600160401b03168352928401929184019160010161249c565b50909695505050505050565b600080604083850312156124e057600080fd5b82356001600160401b03808211156124f757600080fd5b818501915085601f83011261250b57600080fd5b81356020612518826122cc565b60405161252582826122a0565b83815260059390931b850182019282810191508984111561254557600080fd5b948201945b8386101561256c57853561255d81612175565b8252948201949082019061254a565b9650508601359250508082111561258257600080fd5b5061258f858286016122ef565b9150509250929050565b600081518084526020808501945080840160005b838110156125c9578151875295820195908201906001016125ad565b509495945050505050565b6020815260006105d26020830184612599565b8051825260208101516020830152604081015160408301526000606082015160a0606085015261261a60a0850182612599565b9050608083015184820360808601526126338282612226565b95945050505050565b602081526001600160401b03825116602082015260018060a01b036020830151166040820152604082015160608201526000606083015160808084015261268660a08401826125e7565b949350505050565b80356001600160401b03811681146126a557600080fd5b919050565b6000602082840312156126bc57600080fd5b6105d28261268e565b8481528360208201528260408201526080606082015260006126ea6080830184612226565b9695505050505050565b8015158114610f5657600080fd5b6000806040838503121561271557600080fd5b823561272081612175565b91506020830135612730816126f4565b809150509250929050565b6000806040838503121561274e57600080fd5b823561275981612175565b91506127676020840161268e565b90509250929050565b600082601f83011261278157600080fd5b60405161278d8161227b565b80604084018581111561279f57600080fd5b845b818110156127b95780358352602092830192016127a1565b509195945050505050565b600080600080600061014086880312156127dd57600080fd5b6127e68661268e565b94506020808701356001600160401b0381111561280257600080fd5b61280e89828a016122ef565b955050604061281f89828a01612770565b945088609f89011261283057600080fd5b805161283b8161227b565b806101008a018b81111561284e57600080fd5b60808b015b81811015612872576128658d82612770565b8352918501918401612853565b508296506128808c82612770565b955050505050509295509295909350565b6020815260006105d260208301846125e7565b600080604083850312156128b757600080fd5b82356128c281612175565b9150602083013561273081612175565b600080600080600060a086880312156128ea57600080fd5b85356128f581612175565b9450602086013561290581612175565b9350604086013592506060860135915060808601356001600160401b0381111561292e57600080fd5b61247388828901612360565b60006020828403121561294c57600080fd5b81356105d281612175565b600060a0828403121561296957600080fd5b60405160a081016001600160401b03828210818311171561298c5761298c612265565b8160405282935084358352602085013560208401526040850135604084015260608501359150808211156129bf57600080fd5b6129cb868387016122ef565b606084015260808501359150808211156129e457600080fd5b506129f185828601612360565b6080830152505092915050565b60008060008060808587031215612a1457600080fd5b8435612a1f81612175565b935060208501356001600160401b0380821115612a3b57600080fd5b612a4788838901612957565b9450604087013593506060870135915080821115612a6457600080fd5b50612a7187828801612360565b91505092959194509250565b600080600060608486031215612a9257600080fd5b612a9b8461268e565b92506020840135612aab81612175565b915060408401356001600160401b03811115612ac657600080fd5b612ad286828701612957565b9150509250925092565b600181811c90821680612af057607f821691505b602082108103612b1057634e487b7160e01b600052602260045260246000fd5b50919050565b6000808454612b2481612adc565b60018281168015612b3c5760018114612b5157612b80565b60ff1984168752821515830287019450612b80565b8860005260208060002060005b85811015612b775781548a820152908401908201612b5e565b50505082870194505b505050508351612b94818360208801612202565b01949350505050565b634e487b7160e01b600052603260045260246000fd5b634e487b7160e01b600052601160045260246000fd5b600060018201612bdb57612bdb612bb3565b5060010190565b8060005b6002811015611599578151845260209384019390910190600101612be6565b60008154612c1281612adc565b808552602060018381168015612c2f5760018114612c4957612c77565b60ff1985168884015283151560051b880183019550612c77565b866000528260002060005b85811015612c6f5781548a8201860152908301908401612c54565b890184019650505b505050505092915050565b6000610140808352612c9681840189612599565b90506020612ca681850189612be2565b606084018760005b6002811015612cd557612cc2838351612be2565b6040929092019190830190600101612cae565b505050612ce560e0850187612be2565b83820361012085015284548252600180860154828401526002860154604084015260a0606084018190526003870180549185018290526000908152838120929160c08601905b80831015612d485784548252938301939183019190850190612d2b565b508581036080870152612d5e8160048b01612c05565b9d9c50505050505050505050505050565b600060208284031215612d8157600080fd5b81516105d2816126f4565b808201808211156104ce576104ce612bb3565b6001600160401b03841681526001600160a01b0383166020820152606060408201819052600090612633908301846125e7565b601f821115612e1857600081815260208120601f850160051c81016020861015612df95750805b601f850160051c820191505b81811015611abb57828155600101612e05565b505050565b81516001600160401b03811115612e3657612e36612265565b612e4a81612e448454612adc565b84612dd2565b602080601f831160018114612e7f5760008415612e675750858301515b600019600386901b1c1916600185901b178555611abb565b600085815260208120601f198616915b82811015612eae57888601518255948401946001909101908401612e8f565b5085821015612ecc5787850151600019600388901b60f8161c191681555b5050505050600190811b01905550565b82815260406020820152600061268660408301846125e7565b6020808252602e908201527f455243313135353a2063616c6c6572206973206e6f7420746f6b656e206f776e60408201526d195c881bdc88185c1c1c9bdd995960921b606082015260800190565b600060208284031215612f5557600080fd5b5051919050565b60208082526025908201527f455243313135353a207472616e7366657220746f20746865207a65726f206164604082015264647265737360d81b606082015260800190565b6020808252602a908201527f455243313135353a20696e73756666696369656e742062616c616e636520666f60408201526939103a3930b739b332b960b11b606082015260800190565b604081526000612ffe6040830185612599565b82810360208401526126338185612599565b6001600160a01b03868116825285166020820152604081018490526060810183905260a06080820181905260009061304a90830184612226565b979650505050505050565b60006020828403121561306757600080fd5b81516105d2816121b6565b600060033d111561308b5760046000803e5060005160e01c5b90565b600060443d101561309c5790565b6040516003193d81016004833e81513d6001600160401b0381602484011181841117156130cb57505050505090565b82850191508151818111156130e35750505050505090565b843d87010160208285010111156130fd5750505050505090565b61310c602082860101876122a0565b509095945050505050565b60208082526028908201527f455243313135353a204552433131353552656365697665722072656a656374656040820152676420746f6b656e7360c01b606082015260800190565b6001600160a01b0386811682528516602082015260a06040820181905260009061318b90830186612599565b828103606084015261319d8186612599565b905082810360808401526131b18185612226565b9897505050505050505056fea26469706673582212205be4ccd432bf7ac93ff0aba50247d569544af86ba11469c383e850d9f45b059a64736f6c63430008130033",
    "linkReferences": {}
  },
  "methodIdentifiers": {
    "balanceOf(address,uint256)": "00fdd58e",
    "balanceOfBatch(address[],uint256[])": "4e1273f4",
    "convertUint256ToUint64(uint256)": "825747cb",
    "getSupportedRequests()": "37ba9523",
    "getZKPRequest(uint64)": "c76d0845",
    "initBadge(address,(uint256,uint256,uint256,uint256[],string),uint256,string)": "fe1ea8ed",
    "isApprovedForAll(address,address)": "e985e9c5",
    "locked(uint256)": "b45a3c0e",
    "owner()": "8da5cb5b",
    "proofs(address,uint64)": "b45c0fdf",
    "renounceOwnership()": "715018a6",
    "requestExist(uint64)": "a5a40e16",
    "requestQueries(uint64)": "96bf4741",
    "requestValidators(uint64)": "a8723114",
    "safeBatchTransferFrom(address,address,uint256[],uint256[],bytes)": "2eb2c2d6",
    "safeTransferFrom(address,address,uint256,uint256,bytes)": "f242432a",
    "setApprovalForAll(address,bool)": "a22cb465",
    "setZKPRequest(uint64,address,(uint256,uint256,uint256,uint256[],string))": "fee207e6",
    "submitZKPResponse(uint64,uint256[],uint256[2],uint256[2][2],uint256[2])": "b68967e2",
    "supportedRequests(uint256)": "f1435326",
    "supportsInterface(bytes4)": "01ffc9a7",
    "tokenReptationData(uint256)": "76012526",
    "totalSupply()": "18160ddd",
    "transferOwnership(address)": "f2fde38b",
    "uri(uint256)": "0e89341c"
  },
  "id": 12
}