{
  "abi": [
    {
      "inputs": [],
      "stateMutability": "nonpayable",
      "type": "constructor"
    },
    {
      "inputs": [],
      "name": "ErrLocked",
      "type": "error"
    },
    {
      "inputs": [],
      "name": "ErrNotFound",
      "type": "error"
    },
    {
      "anonymous": false,
      "inputs": [
        {
          "indexed": true,
          "internalType": "address",
          "name": "account",
          "type": "address"
        },
        {
          "indexed": true,
          "internalType": "address",
          "name": "operator",
          "type": "address"
        },
        {
          "indexed": false,
          "internalType": "bool",
          "name": "approved",
          "type": "bool"
        }
      ],
      "name": "ApprovalForAll",
      "type": "event"
    },
    {
      "anonymous": false,
      "inputs": [
        {
          "indexed": true,
          "internalType": "uint256",
          "name": "_tokenId",
          "type": "uint256"
        },
        {
          "indexed": false,
          "internalType": "uint256",
          "name": "_expireTimestamp",
          "type": "uint256"
        },
        {
          "components": [
            {
              "internalType": "uint256",
              "name": "schema",
              "type": "uint256"
            },
            {
              "internalType": "uint256",
              "name": "claimPathKey",
              "type": "uint256"
            },
            {
              "internalType": "uint256",
              "name": "operator",
              "type": "uint256"
            },
            {
              "internalType": "uint256[]",
              "name": "value",
              "type": "uint256[]"
            },
            {
              "internalType": "uint256",
              "name": "queryHash",
              "type": "uint256"
            },
            {
              "internalType": "string",
              "name": "circuitId",
              "type": "string"
            }
          ],
          "indexed": false,
          "internalType": "struct ICircuitValidator.CircuitQuery",
          "name": "_query",
          "type": "tuple"
        }
      ],
      "name": "InitBadge",
      "type": "event"
    },
    {
      "anonymous": false,
      "inputs": [
        {
          "indexed": false,
          "internalType": "uint256",
          "name": "tokenId",
          "type": "uint256"
        }
      ],
      "name": "Locked",
      "type": "event"
    },
    {
      "anonymous": false,
      "inputs": [
        {
          "indexed": true,
          "internalType": "uint256",
          "name": "_tokenId",
          "type": "uint256"
        },
        {
          "indexed": true,
          "internalType": "address",
          "name": "_to",
          "type": "address"
        }
      ],
      "name": "MintBadge",
      "type": "event"
    },
    {
      "anonymous": false,
      "inputs": [
        {
          "indexed": true,
          "internalType": "address",
          "name": "previousOwner",
          "type": "address"
        },
        {
          "indexed": true,
          "internalType": "address",
          "name": "newOwner",
          "type": "address"
        }
      ],
      "name": "OwnershipTransferred",
      "type": "event"
    },
    {
      "anonymous": false,
      "inputs": [
        {
          "indexed": true,
          "internalType": "address",
          "name": "operator",
          "type": "address"
        },
        {
          "indexed": true,
          "internalType": "address",
          "name": "from",
          "type": "address"
        },
        {
          "indexed": true,
          "internalType": "address",
          "name": "to",
          "type": "address"
        },
        {
          "indexed": false,
          "internalType": "uint256[]",
          "name": "ids",
          "type": "uint256[]"
        },
        {
          "indexed": false,
          "internalType": "uint256[]",
          "name": "values",
          "type": "uint256[]"
        }
      ],
      "name": "TransferBatch",
      "type": "event"
    },
    {
      "anonymous": false,
      "inputs": [
        {
          "indexed": true,
          "internalType": "address",
          "name": "operator",
          "type": "address"
        },
        {
          "indexed": true,
          "internalType": "address",
          "name": "from",
          "type": "address"
        },
        {
          "indexed": true,
          "internalType": "address",
          "name": "to",
          "type": "address"
        },
        {
          "indexed": false,
          "internalType": "uint256",
          "name": "id",
          "type": "uint256"
        },
        {
          "indexed": false,
          "internalType": "uint256",
          "name": "value",
          "type": "uint256"
        }
      ],
      "name": "TransferSingle",
      "type": "event"
    },
    {
      "anonymous": false,
      "inputs": [
        {
          "indexed": false,
          "internalType": "string",
          "name": "value",
          "type": "string"
        },
        {
          "indexed": true,
          "internalType": "uint256",
          "name": "id",
          "type": "uint256"
        }
      ],
      "name": "URI",
      "type": "event"
    },
    {
      "anonymous": false,
      "inputs": [
        {
          "indexed": false,
          "internalType": "uint256",
          "name": "tokenId",
          "type": "uint256"
        }
      ],
      "name": "Unlocked",
      "type": "event"
    },
    {
      "inputs": [
        {
          "internalType": "address",
          "name": "account",
          "type": "address"
        },
        {
          "internalType": "uint256",
          "name": "id",
          "type": "uint256"
        }
      ],
      "name": "balanceOf",
      "outputs": [
        {
          "internalType": "uint256",
          "name": "",
          "type": "uint256"
        }
      ],
      "stateMutability": "view",
      "type": "function"
    },
    {
      "inputs": [
        {
          "internalType": "address[]",
          "name": "accounts",
          "type": "address[]"
        },
        {
          "internalType": "uint256[]",
          "name": "ids",
          "type": "uint256[]"
        }
      ],
      "name": "balanceOfBatch",
      "outputs": [
        {
          "internalType": "uint256[]",
          "name": "",
          "type": "uint256[]"
        }
      ],
      "stateMutability": "view",
      "type": "function"
    },
    {
      "inputs": [
        {
          "internalType": "uint256",
          "name": "value",
          "type": "uint256"
        }
      ],
      "name": "convertUint256ToUint64",
      "outputs": [
        {
          "internalType": "uint64",
          "name": "",
          "type": "uint64"
        }
      ],
      "stateMutability": "pure",
      "type": "function"
    },
    {
      "inputs": [],
      "name": "getSupportedRequests",
      "outputs": [
        {
          "internalType": "uint64[]",
          "name": "arr",
          "type": "uint64[]"
        }
      ],
      "stateMutability": "view",
      "type": "function"
    },
    {
      "inputs": [
        {
          "internalType": "uint64",
          "name": "requestId",
          "type": "uint64"
        }
      ],
      "name": "getZKPRequest",
      "outputs": [
        {
          "components": [
            {
              "internalType": "uint256",
              "name": "schema",
              "type": "uint256"
            },
            {
              "internalType": "uint256",
              "name": "claimPathKey",
              "type": "uint256"
            },
            {
              "internalType": "uint256",
              "name": "operator",
              "type": "uint256"
            },
            {
              "internalType": "uint256[]",
              "name": "value",
              "type": "uint256[]"
            },
            {
              "internalType": "uint256",
              "name": "queryHash",
              "type": "uint256"
            },
            {
              "internalType": "string",
              "name": "circuitId",
              "type": "string"
            }
          ],
          "internalType": "struct ICircuitValidator.CircuitQuery",
          "name": "",
          "type": "tuple"
        }
      ],
      "stateMutability": "view",
      "type": "function"
    },
    {
      "inputs": [
        {
          "internalType": "contract ICircuitValidator",
          "name": "_validator",
          "type": "address"
        },
        {
          "components": [
            {
              "internalType": "uint256",
              "name": "schema",
              "type": "uint256"
            },
            {
              "internalType": "uint256",
              "name": "claimPathKey",
              "type": "uint256"
            },
            {
              "internalType": "uint256",
              "name": "operator",
              "type": "uint256"
            },
            {
              "internalType": "uint256[]",
              "name": "value",
              "type": "uint256[]"
            },
            {
              "internalType": "uint256",
              "name": "queryHash",
              "type": "uint256"
            },
            {
              "internalType": "string",
              "name": "circuitId",
              "type": "string"
            }
          ],
          "internalType": "struct ICircuitValidator.CircuitQuery",
          "name": "_query",
          "type": "tuple"
        },
        {
          "internalType": "uint256",
          "name": "_expireTimestamp",
          "type": "uint256"
        },
        {
          "internalType": "string",
          "name": "_tokenURI",
          "type": "string"
        }
      ],
      "name": "initBadge",
      "outputs": [],
      "stateMutability": "nonpayable",
      "type": "function"
    },
    {
      "inputs": [
        {
          "internalType": "address",
          "name": "account",
          "type": "address"
        },
        {
          "internalType": "address",
          "name": "operator",
          "type": "address"
        }
      ],
      "name": "isApprovedForAll",
      "outputs": [
        {
          "internalType": "bool",
          "name": "",
          "type": "bool"
        }
      ],
      "stateMutability": "view",
      "type": "function"
    },
    {
      "inputs": [
        {
          "internalType": "uint256",
          "name": "tokenId",
          "type": "uint256"
        }
      ],
      "name": "locked",
      "outputs": [
        {
          "internalType": "bool",
          "name": "",
          "type": "bool"
        }
      ],
      "stateMutability": "view",
      "type": "function"
    },
    {
      "inputs": [],
      "name": "owner",
      "outputs": [
        {
          "internalType": "address",
          "name": "",
          "type": "address"
        }
      ],
      "stateMutability": "view",
      "type": "function"
    },
    {
      "inputs": [
        {
          "internalType": "address",
          "name": "",
          "type": "address"
        },
        {
          "internalType": "uint64",
          "name": "",
          "type": "uint64"
        }
      ],
      "name": "proofs",
      "outputs": [
        {
          "internalType": "bool",
          "name": "",
          "type": "bool"
        }
      ],
      "stateMutability": "view",
      "type": "function"
    },
    {
      "inputs": [],
      "name": "renounceOwnership",
      "outputs": [],
      "stateMutability": "nonpayable",
      "type": "function"
    },
    {
      "inputs": [
        {
          "internalType": "uint64",
          "name": "",
          "type": "uint64"
        }
      ],
      "name": "requestQueries",
      "outputs": [
        {
          "internalType": "uint256",
          "name": "schema",
          "type": "uint256"
        },
        {
          "internalType": "uint256",
          "name": "claimPathKey",
          "type": "uint256"
        },
        {
          "internalType": "uint256",
          "name": "operator",
          "type": "uint256"
        },
        {
          "internalType": "uint256",
          "name": "queryHash",
          "type": "uint256"
        },
        {
          "internalType": "string",
          "name": "circuitId",
          "type": "string"
        }
      ],
      "stateMutability": "view",
      "type": "function"
    },
    {
      "inputs": [
        {
          "internalType": "uint64",
          "name": "",
          "type": "uint64"
        }
      ],
      "name": "requestValidators",
      "outputs": [
        {
          "internalType": "contract ICircuitValidator",
          "name": "",
          "type": "address"
        }
      ],
      "stateMutability": "view",
      "type": "function"
    },
    {
      "inputs": [
        {
          "internalType": "address",
          "name": "from",
          "type": "address"
        },
        {
          "internalType": "address",
          "name": "to",
          "type": "address"
        },
        {
          "internalType": "uint256[]",
          "name": "ids",
          "type": "uint256[]"
        },
        {
          "internalType": "uint256[]",
          "name": "amounts",
          "type": "uint256[]"
        },
        {
          "internalType": "bytes",
          "name": "data",
          "type": "bytes"
        }
      ],
      "name": "safeBatchTransferFrom",
      "outputs": [],
      "stateMutability": "nonpayable",
      "type": "function"
    },
    {
      "inputs": [
        {
          "internalType": "address",
          "name": "from",
          "type": "address"
        },
        {
          "internalType": "address",
          "name": "to",
          "type": "address"
        },
        {
          "internalType": "uint256",
          "name": "tokenId",
          "type": "uint256"
        },
        {
          "internalType": "uint256",
          "name": "amount",
          "type": "uint256"
        },
        {
          "internalType": "bytes",
          "name": "data",
          "type": "bytes"
        }
      ],
      "name": "safeTransferFrom",
      "outputs": [],
      "stateMutability": "nonpayable",
      "type": "function"
    },
    {
      "inputs": [
        {
          "internalType": "address",
          "name": "operator",
          "type": "address"
        },
        {
          "internalType": "bool",
          "name": "approved",
          "type": "bool"
        }
      ],
      "name": "setApprovalForAll",
      "outputs": [],
      "stateMutability": "nonpayable",
      "type": "function"
    },
    {
      "inputs": [
        {
          "internalType": "uint64",
          "name": "requestId",
          "type": "uint64"
        },
        {
          "internalType": "contract ICircuitValidator",
          "name": "validator",
          "type": "address"
        },
        {
          "internalType": "uint256",
          "name": "schema",
          "type": "uint256"
        },
        {
          "internalType": "uint256",
          "name": "claimPathKey",
          "type": "uint256"
        },
        {
          "internalType": "uint256",
          "name": "operator",
          "type": "uint256"
        },
        {
          "internalType": "uint256[]",
          "name": "value",
          "type": "uint256[]"
        }
      ],
      "name": "setZKPRequest",
      "outputs": [
        {
          "internalType": "bool",
          "name": "",
          "type": "bool"
        }
      ],
      "stateMutability": "nonpayable",
      "type": "function"
    },
    {
      "inputs": [
        {
          "internalType": "uint64",
          "name": "requestId",
          "type": "uint64"
        },
        {
          "internalType": "contract ICircuitValidator",
          "name": "validator",
          "type": "address"
        },
        {
          "internalType": "uint256",
          "name": "schema",
          "type": "uint256"
        },
        {
          "internalType": "uint256",
          "name": "claimPathKey",
          "type": "uint256"
        },
        {
          "internalType": "uint256",
          "name": "operator",
          "type": "uint256"
        },
        {
          "internalType": "uint256[]",
          "name": "value",
          "type": "uint256[]"
        },
        {
          "internalType": "uint256",
          "name": "queryHash",
          "type": "uint256"
        }
      ],
      "name": "setZKPRequestRaw",
      "outputs": [
        {
          "internalType": "bool",
          "name": "",
          "type": "bool"
        }
      ],
      "stateMutability": "nonpayable",
      "type": "function"
    },
    {
      "inputs": [
        {
          "internalType": "uint64",
          "name": "requestId",
          "type": "uint64"
        },
        {
          "internalType": "uint256[]",
          "name": "inputs",
          "type": "uint256[]"
        },
        {
          "internalType": "uint256[2]",
          "name": "a",
          "type": "uint256[2]"
        },
        {
          "internalType": "uint256[2][2]",
          "name": "b",
          "type": "uint256[2][2]"
        },
        {
          "internalType": "uint256[2]",
          "name": "c",
          "type": "uint256[2]"
        }
      ],
      "name": "submitZKPResponse",
      "outputs": [
        {
          "internalType": "bool",
          "name": "",
          "type": "bool"
        }
      ],
      "stateMutability": "nonpayable",
      "type": "function"
    },
    {
      "inputs": [
        {
          "internalType": "bytes4",
          "name": "interfaceId",
          "type": "bytes4"
        }
      ],
      "name": "supportsInterface",
      "outputs": [
        {
          "internalType": "bool",
          "name": "",
          "type": "bool"
        }
      ],
      "stateMutability": "view",
      "type": "function"
    },
    {
      "inputs": [
        {
          "internalType": "uint256",
          "name": "id",
          "type": "uint256"
        }
      ],
      "name": "tokenReptationData",
      "outputs": [
        {
          "components": [
            {
              "internalType": "uint64",
              "name": "requestId",
              "type": "uint64"
            },
            {
              "internalType": "address",
              "name": "issuer",
              "type": "address"
            },
            {
              "internalType": "uint256",
              "name": "expireTimestamp",
              "type": "uint256"
            },
            {
              "components": [
                {
                  "internalType": "uint256",
                  "name": "schema",
                  "type": "uint256"
                },
                {
                  "internalType": "uint256",
                  "name": "claimPathKey",
                  "type": "uint256"
                },
                {
                  "internalType": "uint256",
                  "name": "operator",
                  "type": "uint256"
                },
                {
                  "internalType": "uint256[]",
                  "name": "value",
                  "type": "uint256[]"
                },
                {
                  "internalType": "uint256",
                  "name": "queryHash",
                  "type": "uint256"
                },
                {
                  "internalType": "string",
                  "name": "circuitId",
                  "type": "string"
                }
              ],
              "internalType": "struct ICircuitValidator.CircuitQuery",
              "name": "query",
              "type": "tuple"
            }
          ],
          "internalType": "struct ZKBadge.Reptation",
          "name": "reptation",
          "type": "tuple"
        }
      ],
      "stateMutability": "view",
      "type": "function"
    },
    {
      "inputs": [],
      "name": "totalSupply",
      "outputs": [
        {
          "internalType": "uint256",
          "name": "",
          "type": "uint256"
        }
      ],
      "stateMutability": "view",
      "type": "function"
    },
    {
      "inputs": [
        {
          "internalType": "address",
          "name": "newOwner",
          "type": "address"
        }
      ],
      "name": "transferOwnership",
      "outputs": [],
      "stateMutability": "nonpayable",
      "type": "function"
    },
    {
      "inputs": [
        {
          "internalType": "uint256",
          "name": "tokenId",
          "type": "uint256"
        }
      ],
      "name": "uri",
      "outputs": [
        {
          "internalType": "string",
          "name": "",
          "type": "string"
        }
      ],
      "stateMutability": "view",
      "type": "function"
    }
  ],
  "bytecode": {
    "object": "0x60a0604052600060809081526003906200001a90826200016b565b50600a805460ff191660011790553480156200003557600080fd5b50604080516020810190915260008152620000508162000062565b506200005c3362000074565b62000237565b60026200007082826200016b565b5050565b600580546001600160a01b038381166001600160a01b0319831681179093556040519116919082907f8be0079c531659141344cd1fd0a4f28419497f9722a3daafe3b4186f6b6457e090600090a35050565b634e487b7160e01b600052604160045260246000fd5b600181811c90821680620000f157607f821691505b6020821081036200011257634e487b7160e01b600052602260045260246000fd5b50919050565b601f8211156200016657600081815260208120601f850160051c81016020861015620001415750805b601f850160051c820191505b8181101562000162578281556001016200014d565b5050505b505050565b81516001600160401b03811115620001875762000187620000c6565b6200019f81620001988454620000dc565b8462000118565b602080601f831160018114620001d75760008415620001be5750858301515b600019600386901b1c1916600185901b17855562000162565b600085815260208120601f198616915b828110156200020857888601518255948401946001909101908401620001e7565b5085821015620002275787850151600019600388901b60f8161c191681555b5050505050600190811b01905550565b61342a80620002476000396000f3fe608060405234801561001057600080fd5b50600436106101575760003560e01c806396bf4741116100c3578063b45c0fdf1161007c578063b45c0fdf1461033b578063b68967e214610369578063c76d08451461037c578063e985e9c51461039c578063f242432a146103d8578063f2fde38b146103eb57600080fd5b806396bf4741146102a25780639abdc645146102c65780639e621bcf146102d9578063a22cb465146102ec578063a8723114146102ff578063b45a3c0e1461032857600080fd5b80634e1273f4116101155780634e1273f4146101f75780635bcca7ee14610217578063715018a61461022a5780637601252614610232578063825747cb146102525780638da5cb5b1461027d57600080fd5b8062fdd58e1461015c57806301ffc9a7146101825780630e89341c146101a557806318160ddd146101c55780632eb2c2d6146101cd57806337ba9523146101e2575b600080fd5b61016f61016a366004612380565b6103fe565b6040519081526020015b60405180910390f35b6101956101903660046123c2565b610497565b6040519015158152602001610179565b6101b86101b33660046123df565b6104bc565b6040516101799190612448565b600b5461016f565b6101e06101db3660046125dc565b61059c565b005b6101ea6105d4565b6040516101799190612689565b61020a6102053660046126d6565b61065e565b60405161017991906127dd565b6101e06102253660046127f0565b610787565b6101e0610983565b6102456102403660046123df565b610997565b6040516101799190612948565b6102656102603660046123df565b610b0e565b6040516001600160401b039091168152602001610179565b6005546001600160a01b03165b6040516001600160a01b039091168152602001610179565b6102b56102b03660046129b6565b610b6b565b6040516101799594939291906129d1565b6101956102d4366004612a52565b610c24565b6101956102e7366004612ad5565b610d75565b6101e06102fa366004612b6d565b610f2e565b61028a61030d3660046129b6565b6008602052600090815260409020546001600160a01b031681565b6101956103363660046123df565b610f60565b610195610349366004612ba6565b600660209081526000928352604080842090915290825290205460ff1681565b610195610377366004612bec565b610f90565b61038f61038a3660046129b6565b611260565b6040516101799190612c7b565b6101956103aa366004612c8e565b6001600160a01b03918216600090815260016020908152604080832093909416825291909152205460ff1690565b6101e06103e6366004612cbc565b6113ce565b6101e06103f9366004612d24565b6113ff565b60006001600160a01b03831661046e5760405162461bcd60e51b815260206004820152602a60248201527f455243313135353a2061646472657373207a65726f206973206e6f742061207660448201526930b634b21037bbb732b960b11b60648201526084015b60405180910390fd5b506000818152602081815260408083206001600160a01b03861684529091529020545b92915050565b60006001600160e01b03198216635a2d1e0760e11b1480610491575061049182611478565b6000818152600460205260408120805460609291906104da90612d41565b80601f016020809104026020016040519081016040528092919081815260200182805461050690612d41565b80156105535780601f1061052857610100808354040283529160200191610553565b820191906000526020600020905b81548152906001019060200180831161053657829003601f168201915b5050505050905060008151116105715761056c836114c8565b610595565b600381604051602001610585929190612d7b565b6040516020818303038152906040525b9392505050565b600a5460ff16156105c05760405163bd291a9560e01b815260040160405180910390fd5b6105cd858585858561155c565b5050505050565b6060600980548060200260200160405190810160405280929190818152602001828054801561065457602002820191906000526020600020906000905b82829054906101000a90046001600160401b03166001600160401b0316815260200190600801906020826007010492830192600103820291508084116106115790505b5050505050905090565b606081518351146106c35760405162461bcd60e51b815260206004820152602960248201527f455243313135353a206163636f756e747320616e6420696473206c656e677468604482015268040dad2e6dac2e8c6d60bb1b6064820152608401610465565b600083516001600160401b038111156106de576106de61245b565b604051908082528060200260200182016040528015610707578160200160208202803683370190505b50905060005b845181101561077f5761075285828151811061072b5761072b612e02565b602002602001015185838151811061074557610745612e02565b60200260200101516103fe565b82828151811061076457610764612e02565b602090810291909101015261077881612e2e565b905061070d565b509392505050565b6000600b5460016107989190612e47565b905030639abdc6456107a983610b0e565b878760000151886020015189604001518a606001516040518763ffffffff1660e01b81526004016107df96959493929190612e5a565b6020604051808303816000875af11580156107fe573d6000803e3d6000fd5b505050506040513d601f19601f820116820180604052508101906108229190612ea8565b5061083f30826001604051806020016040528060008152506115a1565b61084981836116b5565b604051806080016040528061085d83610b0e565b6001600160401b03168152602001336001600160a01b039081168252602080830187905260409283018890526000858152600c82528390208451815486840151909416600160401b026001600160e01b03199094166001600160401b039091161792909217825583830151600183015560608085015180516002850190815581840151600386015594810151600485015590810151805193949193919261090c92600587019290910190612264565b506080820151600482015560a0820151600582019061092b9082612f10565b50505090505061093a81610b0e565b6001600160401b03167f2aba27ed08081e16430401a2939882ee0396bdb45facc7ba9f6fabecdbd044ad8486604051610974929190612fcf565b60405180910390a25050505050565b61098b611712565b610995600061176c565b565b61099f6122ab565b6000828152600c6020908152604091829020825160808101845281546001600160401b0381168252600160401b90046001600160a01b031681840152600182015481850152835160c0810185526002830180548252600384015482860152600484015482870152600584018054875181880281018801909852808852939694956060808901969495939490860193909291830182828015610a5f57602002820191906000526020600020905b815481526020019060010190808311610a4b575b5050505050815260200160048201548152602001600582018054610a8290612d41565b80601f0160208091040260200160405190810160405280929190818152602001828054610aae90612d41565b8015610afb5780601f10610ad057610100808354040283529160200191610afb565b820191906000526020600020905b815481529060010190602001808311610ade57829003601f168201915b5050509190925250505090525092915050565b60006001600160401b03821115610b675760405162461bcd60e51b815260206004820181905260248201527f56616c756520746f6f206c6172676520746f2066697420696e2075696e7436346044820152606401610465565b5090565b600760205260009081526040902080546001820154600283015460048401546005850180549495939492939192610ba190612d41565b80601f0160208091040260200160405190810160405280929190818152602001828054610bcd90612d41565b8015610c1a5780601f10610bef57610100808354040283529160200191610c1a565b820191906000526020600020905b815481529060010190602001808311610bfd57829003601f168201915b5050505050905085565b6000610c2e611712565b6040516340ec6e4960e01b815260009073__$36eb1c3292662550b1df2180be06943270$__906340ec6e4990610c6a908790879060040161301a565b602060405180830381865af4158015610c87573d6000803e3d6000fd5b505050506040513d601f19601f82011682018060405250810190610cab919061302e565b9050600073__$4ed6c413d5497c876806113cd712d9f88f$__63f5b4a7886040518060c001604052808b8152602001600081526020018981526020018a815260200160008152602001858152506040518263ffffffff1660e01b8152600401610d149190613047565b602060405180830381865af4158015610d31573d6000803e3d6000fd5b505050506040513d601f19601f82011682018060405250810190610d55919061302e565b9050610d678a8a8a8a8a8a8a88610d75565b9a9950505050505050505050565b6000610d7f611712565b6001600160401b0389166000908152600860205260409020546001600160a01b0316610e0357600980546001810182556000919091527f6e1540171b6c0c960b71a7020d9f60077f6af931a8bbf590da0223dacf75c7af6004820401805460039092166008026101000a6001600160401b0381810219909316928c16029190911790555b6001600160401b038916600090815260076020526040808220600480820186905560029091018890558151632cd1575560e11b815291516001600160a01b038c16936359a2aeaa9380840193919291908290030181865afa158015610e6c573d6000803e3d6000fd5b505050506040513d6000823e601f3d908101601f19168201604052610e949190810190613078565b6001600160401b038a16600090815260076020526040902060050190610eba9082612f10565b506001600160401b038916600090815260076020526040902060018101879055878155610eeb90600301858561231b565b50506001600160401b038816600090815260086020526040902080546001600160a01b0389166001600160a01b0319909116179055600198975050505050505050565b600a5460ff1615610f525760405163bd291a9560e01b815260040160405180910390fd5b610f5c82826117be565b5050565b6000600b54821115610f855760405163ae9a63f560e01b815260040160405180910390fd5b5050600a5460ff1690565b6001600160401b0386166000908152600860205260408120546001600160a01b031661100f5760405162461bcd60e51b815260206004820152602860248201527f76616c696461746f72206973206e6f742073657420666f7220746869732072656044820152671c5d595cdd081a5960c21b6064820152608401610465565b6001600160401b03871660009081526007602052604081206004015490036110855760405162461bcd60e51b8152602060048201526024808201527f7175657279206973206e6f742073657420666f722074686973207265717565736044820152631d081a5960e21b6064820152608401610465565b6110e18787878080602002602001604051908101604052809392919081815260200183836020028082843760009201829052506001600160401b038e168152600860205260409020546001600160a01b031692506117c9915050565b6001600160401b038716600090815260086020908152604080832054600790925291829020600490810154925163434661ef60e01b81526001600160a01b039092169263434661ef92611140928b928b928b928b928b929091016130f9565b602060405180830381865afa15801561115d573d6000803e3d6000fd5b505050506040513d601f19601f820116820180604052508101906111819190612ea8565b6111cd5760405162461bcd60e51b815260206004820152601b60248201527f70726f6f6620726573706f6e7365206973206e6f742076616c696400000000006044820152606401610465565b3360009081526006602090815260408083206001600160401b038b168452825291829020805460ff1916600117905581518782028181018301909352878152611253928a928a918a9182919085019084908082843760009201829052506001600160401b038e168152600860205260409020546001600160a01b031692506118bf915050565b5060019695505050505050565b6112996040518060c001604052806000815260200160008152602001600081526020016060815260200160008152602001606081525090565b6001600160401b038216600090815260076020908152604091829020825160c08101845281548152600182015481840152600282015481850152600382018054855181860281018601909652808652919492936060860193929083018282801561132257602002820191906000526020600020905b81548152602001906001019080831161130e575b505050505081526020016004820154815260200160058201805461134590612d41565b80601f016020809104026020016040519081016040528092919081815260200182805461137190612d41565b80156113be5780601f10611393576101008083540402835291602001916113be565b820191906000526020600020905b8154815290600101906020018083116113a157829003601f168201915b5050505050815250509050919050565b600a5460ff16156113f25760405163bd291a9560e01b815260040160405180910390fd5b6105cd8585858585611a50565b611407611712565b6001600160a01b03811661146c5760405162461bcd60e51b815260206004820152602660248201527f4f776e61626c653a206e6577206f776e657220697320746865207a65726f206160448201526564647265737360d01b6064820152608401610465565b6114758161176c565b50565b60006001600160e01b03198216636cdb3d1360e11b14806114a957506001600160e01b031982166303a24d0760e21b145b8061049157506301ffc9a760e01b6001600160e01b0319831614610491565b6060600280546114d790612d41565b80601f016020809104026020016040519081016040528092919081815260200182805461150390612d41565b80156115505780601f1061152557610100808354040283529160200191611550565b820191906000526020600020905b81548152906001019060200180831161153357829003601f168201915b50505050509050919050565b6001600160a01b038516331480611578575061157885336103aa565b6115945760405162461bcd60e51b81526004016104659061315c565b6105cd8585858585611a95565b6001600160a01b0384166116015760405162461bcd60e51b815260206004820152602160248201527f455243313135353a206d696e7420746f20746865207a65726f206164647265736044820152607360f81b6064820152608401610465565b33600061160d85611c72565b9050600061161a85611c72565b90506000868152602081815260408083206001600160a01b038b1684529091528120805487929061164c908490612e47565b909155505060408051878152602081018790526001600160a01b03808a1692600092918716917fc3d58168c5ae7397731d063d5bbf3d657854427343f4c083240f7aacaa2d0f62910160405180910390a46116ac83600089898989611cbd565b50505050505050565b60008281526004602052604090206116cd8282612f10565b50817f6bb7ff708619ba0610cba295a58592e0451dee2622938c8755667688daf3529b6116f9846104bc565b6040516117069190612448565b60405180910390a25050565b6005546001600160a01b031633146109955760405162461bcd60e51b815260206004820181905260248201527f4f776e61626c653a2063616c6c6572206973206e6f7420746865206f776e65726044820152606401610465565b600580546001600160a01b038381166001600160a01b0319831681179093556040519116919082907f8be0079c531659141344cd1fd0a4f28419497f9722a3daafe3b4186f6b6457e090600090a35050565b610f5c338383611e18565b600061184e83836001600160a01b0316639f442afa6040518163ffffffff1660e01b8152600401602060405180830381865afa15801561180d573d6000803e3d6000fd5b505050506040513d601f19601f82011682018060405250810190611831919061302e565b8151811061184157611841612e02565b6020026020010151611ef8565b9050336001600160a01b038216146118b95760405162461bcd60e51b815260206004820152602860248201527f6164647265737320696e2070726f6f66206973206e6f7420612073656e646572604482015267206164647265737360c01b6064820152608401610465565b50505050565b600b5433906001600160401b0385169081111561192a5760405162461bcd60e51b815260206004820152602360248201527f74686520676976656e207265717565737420696420646f6573206e6f742065786044820152621a5cdd60ea1b6064820152608401610465565b6001600160a01b03821660009081526006602090815260408083206001600160401b038916845290915290205460ff16156119b95760405162461bcd60e51b815260206004820152602960248201527f70726f6f662063616e206e6f74206265207375626d6974746564206d6f7265206044820152687468616e206f6e636560b81b6064820152608401610465565b6119d582826001604051806020016040528060008152506115a1565b6040516001600160a01b0383169082907f3bd96af6938a26c69f7495d25501517707ff4dbdeed3f615989247d2176aa2b690600090a3600a5460ff16156105cd576040518181527f032bc66be43dbccb7487781d168eb7bda224628a3b2c3388bdf69b532a3a16119060200160405180910390a15050505050565b6001600160a01b038516331480611a6c5750611a6c85336103aa565b611a885760405162461bcd60e51b81526004016104659061315c565b6105cd8585858585612055565b8151835114611af75760405162461bcd60e51b815260206004820152602860248201527f455243313135353a2069647320616e6420616d6f756e7473206c656e677468206044820152670dad2e6dac2e8c6d60c31b6064820152608401610465565b6001600160a01b038416611b1d5760405162461bcd60e51b8152600401610465906131aa565b3360005b8451811015611c04576000858281518110611b3e57611b3e612e02565b602002602001015190506000858381518110611b5c57611b5c612e02565b602090810291909101810151600084815280835260408082206001600160a01b038e168352909352919091205490915081811015611bac5760405162461bcd60e51b8152600401610465906131ef565b6000838152602081815260408083206001600160a01b038e8116855292528083208585039055908b16825281208054849290611be9908490612e47565b9250508190555050505080611bfd90612e2e565b9050611b21565b50846001600160a01b0316866001600160a01b0316826001600160a01b03167f4a39dc06d4c0dbc64b70af90fd698a233a518aa5d07e595d983b8c0526c8f7fb8787604051611c54929190613239565b60405180910390a4611c6a81878787878761217f565b505050505050565b60408051600180825281830190925260609160009190602080830190803683370190505090508281600081518110611cac57611cac612e02565b602090810291909101015292915050565b6001600160a01b0384163b15611c6a5760405163f23a6e6160e01b81526001600160a01b0385169063f23a6e6190611d01908990899088908890889060040161325e565b6020604051808303816000875af1925050508015611d3c575060408051601f3d908101601f19168201909252611d3991810190613298565b60015b611de857611d486132b5565b806308c379a003611d815750611d5c6132d1565b80611d675750611d83565b8060405162461bcd60e51b81526004016104659190612448565b505b60405162461bcd60e51b815260206004820152603460248201527f455243313135353a207472616e7366657220746f206e6f6e2d455243313135356044820152732932b1b2b4bb32b91034b6b83632b6b2b73a32b960611b6064820152608401610465565b6001600160e01b0319811663f23a6e6160e01b146116ac5760405162461bcd60e51b81526004016104659061335a565b816001600160a01b0316836001600160a01b031603611e8b5760405162461bcd60e51b815260206004820152602960248201527f455243313135353a2073657474696e6720617070726f76616c20737461747573604482015268103337b91039b2b63360b91b6064820152608401610465565b6001600160a01b03838116600081815260016020908152604080832094871680845294825291829020805460ff191686151590811790915591519182527f17307eab39ab6107e8899845ad3d59bd9653f200f220920489ca2b5937696c31910160405180910390a3505050565b600061049161204e6120498460008190506008817eff00ff00ff00ff00ff00ff00ff00ff00ff00ff00ff00ff00ff00ff00ff00ff16901b6008827fff00ff00ff00ff00ff00ff00ff00ff00ff00ff00ff00ff00ff00ff00ff00ff0016901c1790506010817dffff0000ffff0000ffff0000ffff0000ffff0000ffff0000ffff0000ffff16901b6010827fffff0000ffff0000ffff0000ffff0000ffff0000ffff0000ffff0000ffff000016901c1790506020817bffffffff00000000ffffffff00000000ffffffff00000000ffffffff16901b6020827fffffffff00000000ffffffff00000000ffffffff00000000ffffffff0000000016901c17905060408177ffffffffffffffff0000000000000000ffffffffffffffff16901b60408277ffffffffffffffff0000000000000000ffffffffffffffff1916901c179050608081901b608082901c179050919050565b61223a565b6014015190565b6001600160a01b03841661207b5760405162461bcd60e51b8152600401610465906131aa565b33600061208785611c72565b9050600061209485611c72565b90506000868152602081815260408083206001600160a01b038c168452909152902054858110156120d75760405162461bcd60e51b8152600401610465906131ef565b6000878152602081815260408083206001600160a01b038d8116855292528083208985039055908a16825281208054889290612114908490612e47565b909155505060408051888152602081018890526001600160a01b03808b16928c821692918816917fc3d58168c5ae7397731d063d5bbf3d657854427343f4c083240f7aacaa2d0f62910160405180910390a4612174848a8a8a8a8a611cbd565b505050505050505050565b6001600160a01b0384163b15611c6a5760405163bc197c8160e01b81526001600160a01b0385169063bc197c81906121c390899089908890889088906004016133a2565b6020604051808303816000875af19250505080156121fe575060408051601f3d908101601f191682019092526121fb91810190613298565b60015b61220a57611d486132b5565b6001600160e01b0319811663bc197c8160e01b146116ac5760405162461bcd60e51b81526004016104659061335a565b60408051602080825281830190925260609160208201818036833750505060208101929092525090565b82805482825590600052602060002090810192821561229f579160200282015b8281111561229f578251825591602001919060010190612284565b50610b67929150612356565b604051806080016040528060006001600160401b0316815260200160006001600160a01b03168152602001600081526020016123166040518060c001604052806000815260200160008152602001600081526020016060815260200160008152602001606081525090565b905290565b82805482825590600052602060002090810192821561229f579160200282015b8281111561229f57823582559160200191906001019061233b565b5b80821115610b675760008155600101612357565b6001600160a01b038116811461147557600080fd5b6000806040838503121561239357600080fd5b823561239e8161236b565b946020939093013593505050565b6001600160e01b03198116811461147557600080fd5b6000602082840312156123d457600080fd5b8135610595816123ac565b6000602082840312156123f157600080fd5b5035919050565b60005b838110156124135781810151838201526020016123fb565b50506000910152565b600081518084526124348160208601602086016123f8565b601f01601f19169290920160200192915050565b602081526000610595602083018461241c565b634e487b7160e01b600052604160045260246000fd5b601f8201601f191681016001600160401b03811182821017156124965761249661245b565b6040525050565b60405160c081016001600160401b03811182821017156124bf576124bf61245b565b60405290565b60006001600160401b038211156124de576124de61245b565b5060051b60200190565b600082601f8301126124f957600080fd5b81356020612506826124c5565b6040516125138282612471565b83815260059390931b850182019282810191508684111561253357600080fd5b8286015b8481101561254e5780358352918301918301612537565b509695505050505050565b60006001600160401b038211156125725761257261245b565b50601f01601f191660200190565b600082601f83011261259157600080fd5b813561259c81612559565b6040516125a98282612471565b8281528560208487010111156125be57600080fd5b82602086016020830137600092810160200192909252509392505050565b600080600080600060a086880312156125f457600080fd5b85356125ff8161236b565b9450602086013561260f8161236b565b935060408601356001600160401b038082111561262b57600080fd5b61263789838a016124e8565b9450606088013591508082111561264d57600080fd5b61265989838a016124e8565b9350608088013591508082111561266f57600080fd5b5061267c88828901612580565b9150509295509295909350565b6020808252825182820181905260009190848201906040850190845b818110156126ca5783516001600160401b0316835292840192918401916001016126a5565b50909695505050505050565b600080604083850312156126e957600080fd5b82356001600160401b038082111561270057600080fd5b818501915085601f83011261271457600080fd5b81356020612721826124c5565b60405161272e8282612471565b83815260059390931b850182019282810191508984111561274e57600080fd5b948201945b838610156127755785356127668161236b565b82529482019490820190612753565b9650508601359250508082111561278b57600080fd5b50612798858286016124e8565b9150509250929050565b600081518084526020808501945080840160005b838110156127d2578151875295820195908201906001016127b6565b509495945050505050565b60208152600061059560208301846127a2565b6000806000806080858703121561280657600080fd5b84356128118161236b565b935060208501356001600160401b038082111561282d57600080fd5b9086019060c0828903121561284157600080fd5b61284961249d565b82358152602083013560208201526040830135604082015260608301358281111561287357600080fd5b61287f8a8286016124e8565b6060830152506080830135608082015260a0830135828111156128a157600080fd5b6128ad8a828601612580565b60a08301525094506040870135935060608701359150808211156128d057600080fd5b506128dd87828801612580565b91505092959194509250565b8051825260208101516020830152604081015160408301526000606082015160c0606085015261291c60c08501826127a2565b90506080830151608085015260a083015184820360a086015261293f828261241c565b95945050505050565b602081526001600160401b03825116602082015260018060a01b036020830151166040820152604082015160608201526000606083015160808084015261299260a08401826128e9565b949350505050565b80356001600160401b03811681146129b157600080fd5b919050565b6000602082840312156129c857600080fd5b6105958261299a565b85815284602082015283604082015282606082015260a0608082015260006129fc60a083018461241c565b979650505050505050565b60008083601f840112612a1957600080fd5b5081356001600160401b03811115612a3057600080fd5b6020830191508360208260051b8501011115612a4b57600080fd5b9250929050565b600080600080600080600060c0888a031215612a6d57600080fd5b612a768861299a565b96506020880135612a868161236b565b955060408801359450606088013593506080880135925060a08801356001600160401b03811115612ab657600080fd5b612ac28a828b01612a07565b989b979a50959850939692959293505050565b60008060008060008060008060e0898b031215612af157600080fd5b612afa8961299a565b97506020890135612b0a8161236b565b965060408901359550606089013594506080890135935060a08901356001600160401b03811115612b3a57600080fd5b612b468b828c01612a07565b999c989b50969995989497949560c00135949350505050565b801515811461147557600080fd5b60008060408385031215612b8057600080fd5b8235612b8b8161236b565b91506020830135612b9b81612b5f565b809150509250929050565b60008060408385031215612bb957600080fd5b8235612bc48161236b565b9150612bd26020840161299a565b90509250929050565b806040810183101561049157600080fd5b6000806000806000806101408789031215612c0657600080fd5b612c0f8761299a565b955060208701356001600160401b03811115612c2a57600080fd5b612c3689828a01612a07565b9096509450612c4a90508860408901612bdb565b9250610100870188811115612c5e57600080fd5b608088019250612c6e8982612bdb565b9150509295509295509295565b60208152600061059560208301846128e9565b60008060408385031215612ca157600080fd5b8235612cac8161236b565b91506020830135612b9b8161236b565b600080600080600060a08688031215612cd457600080fd5b8535612cdf8161236b565b94506020860135612cef8161236b565b9350604086013592506060860135915060808601356001600160401b03811115612d1857600080fd5b61267c88828901612580565b600060208284031215612d3657600080fd5b81356105958161236b565b600181811c90821680612d5557607f821691505b602082108103612d7557634e487b7160e01b600052602260045260246000fd5b50919050565b6000808454612d8981612d41565b60018281168015612da15760018114612db657612de5565b60ff1984168752821515830287019450612de5565b8860005260208060002060005b85811015612ddc5781548a820152908401908201612dc3565b50505082870194505b505050508351612df98183602088016123f8565b01949350505050565b634e487b7160e01b600052603260045260246000fd5b634e487b7160e01b600052601160045260246000fd5b600060018201612e4057612e40612e18565b5060010190565b8082018082111561049157610491612e18565b6001600160401b038716815260018060a01b038616602082015284604082015283606082015282608082015260c060a08201526000612e9c60c08301846127a2565b98975050505050505050565b600060208284031215612eba57600080fd5b815161059581612b5f565b601f821115612f0b57600081815260208120601f850160051c81016020861015612eec5750805b601f850160051c820191505b81811015611c6a57828155600101612ef8565b505050565b81516001600160401b03811115612f2957612f2961245b565b612f3d81612f378454612d41565b84612ec5565b602080601f831160018114612f725760008415612f5a5750858301515b600019600386901b1c1916600185901b178555611c6a565b600085815260208120601f198616915b82811015612fa157888601518255948401946001909101908401612f82565b5085821015612fbf5787850151600019600388901b60f8161c191681555b5050505050600190811b01905550565b82815260406020820152600061299260408301846128e9565b81835260006001600160fb1b0383111561300157600080fd5b8260051b80836020870137939093016020019392505050565b602081526000612992602083018486612fe8565b60006020828403121561304057600080fd5b5051919050565b60c08101818360005b600681101561306f578151835260209283019290910190600101613050565b50505092915050565b60006020828403121561308a57600080fd5b81516001600160401b038111156130a057600080fd5b8201601f810184136130b157600080fd5b80516130bc81612559565b6040516130c98282612471565b8281528660208486010111156130de57600080fd5b6130ef8360208301602087016123f8565b9695505050505050565b600061014080835261310e818401898b612fe8565b915050604080876020850137606083018660005b600281101561313f57838284379183019190830190600101613122565b505050808560e08501375082610120830152979650505050505050565b6020808252602e908201527f455243313135353a2063616c6c6572206973206e6f7420746f6b656e206f776e60408201526d195c881bdc88185c1c1c9bdd995960921b606082015260800190565b60208082526025908201527f455243313135353a207472616e7366657220746f20746865207a65726f206164604082015264647265737360d81b606082015260800190565b6020808252602a908201527f455243313135353a20696e73756666696369656e742062616c616e636520666f60408201526939103a3930b739b332b960b11b606082015260800190565b60408152600061324c60408301856127a2565b828103602084015261293f81856127a2565b6001600160a01b03868116825285166020820152604081018490526060810183905260a0608082018190526000906129fc9083018461241c565b6000602082840312156132aa57600080fd5b8151610595816123ac565b600060033d11156132ce5760046000803e5060005160e01c5b90565b600060443d10156132df5790565b6040516003193d81016004833e81513d6001600160401b03816024840111818411171561330e57505050505090565b82850191508151818111156133265750505050505090565b843d87010160208285010111156133405750505050505090565b61334f60208286010187612471565b509095945050505050565b60208082526028908201527f455243313135353a204552433131353552656365697665722072656a656374656040820152676420746f6b656e7360c01b606082015260800190565b6001600160a01b0386811682528516602082015260a0604082018190526000906133ce908301866127a2565b82810360608401526133e081866127a2565b90508281036080840152612e9c818561241c56fea26469706673582212207b5df42ed96a4a1ae032fe7cfd1fbb9351db7ab9189a3a98f9bfc4c511d220b464736f6c63430008130033",
    "linkReferences": {
      "src/lib/Poseidon.sol": {
        "PoseidonUnit6L": [
          {
            "start": 3832,
            "length": 20
          }
        ]
      },
      "src/lib/SpongePoseidon.sol": {
        "SpongePoseidon": [
          {
            "start": 3719,
            "length": 20
          }
        ]
      }
    }
  },
  "methodIdentifiers": {
    "balanceOf(address,uint256)": "00fdd58e",
    "balanceOfBatch(address[],uint256[])": "4e1273f4",
    "convertUint256ToUint64(uint256)": "825747cb",
    "getSupportedRequests()": "37ba9523",
    "getZKPRequest(uint64)": "c76d0845",
    "initBadge(address,(uint256,uint256,uint256,uint256[],uint256,string),uint256,string)": "5bcca7ee",
    "isApprovedForAll(address,address)": "e985e9c5",
    "locked(uint256)": "b45a3c0e",
    "owner()": "8da5cb5b",
    "proofs(address,uint64)": "b45c0fdf",
    "renounceOwnership()": "715018a6",
    "requestQueries(uint64)": "96bf4741",
    "requestValidators(uint64)": "a8723114",
    "safeBatchTransferFrom(address,address,uint256[],uint256[],bytes)": "2eb2c2d6",
    "safeTransferFrom(address,address,uint256,uint256,bytes)": "f242432a",
    "setApprovalForAll(address,bool)": "a22cb465",
    "setZKPRequest(uint64,address,uint256,uint256,uint256,uint256[])": "9abdc645",
    "setZKPRequestRaw(uint64,address,uint256,uint256,uint256,uint256[],uint256)": "9e621bcf",
    "submitZKPResponse(uint64,uint256[],uint256[2],uint256[2][2],uint256[2])": "b68967e2",
    "supportsInterface(bytes4)": "01ffc9a7",
    "tokenReptationData(uint256)": "76012526",
    "totalSupply()": "18160ddd",
    "transferOwnership(address)": "f2fde38b",
    "uri(uint256)": "0e89341c"
  },
  "id": 12
}